{
  "_format": "hh-sol-artifact-1",
  "contractName": "zkShuffleCrypto",
  "sourceName": "@zk-shuffle/contracts/contracts/shuffle/Deck.sol",
  "abi": [
    {
      "inputs": [
        {
          "components": [
            {
              "internalType": "enum DeckConfig",
              "name": "config",
              "type": "DeckConfig"
            },
            {
              "internalType": "uint256[]",
              "name": "X0",
              "type": "uint256[]"
            },
            {
              "internalType": "uint256[]",
              "name": "X1",
              "type": "uint256[]"
            },
            {
              "components": [
                {
                  "internalType": "uint256",
                  "name": "_data",
                  "type": "uint256"
                }
              ],
              "internalType": "struct BitMaps.BitMap256",
              "name": "selector0",
              "type": "tuple"
            },
            {
              "components": [
                {
                  "internalType": "uint256",
                  "name": "_data",
                  "type": "uint256"
                }
              ],
              "internalType": "struct BitMaps.BitMap256",
              "name": "selector1",
              "type": "tuple"
            }
          ],
          "internalType": "struct CompressedDeck",
          "name": "encDeck",
          "type": "tuple"
        },
        {
          "components": [
            {
              "internalType": "enum DeckConfig",
              "name": "config",
              "type": "DeckConfig"
            },
            {
              "internalType": "uint256[]",
              "name": "X0",
              "type": "uint256[]"
            },
            {
              "internalType": "uint256[]",
              "name": "X1",
              "type": "uint256[]"
            },
            {
              "components": [
                {
                  "internalType": "uint256",
                  "name": "_data",
                  "type": "uint256"
                }
              ],
              "internalType": "struct BitMaps.BitMap256",
              "name": "selector0",
              "type": "tuple"
            },
            {
              "components": [
                {
                  "internalType": "uint256",
                  "name": "_data",
                  "type": "uint256"
                }
              ],
              "internalType": "struct BitMaps.BitMap256",
              "name": "selector1",
              "type": "tuple"
            }
          ],
          "internalType": "struct CompressedDeck",
          "name": "oldDeck",
          "type": "tuple"
        },
        {
          "internalType": "uint256",
          "name": "nonce",
          "type": "uint256"
        },
        {
          "internalType": "uint256",
          "name": "aggPkX",
          "type": "uint256"
        },
        {
          "internalType": "uint256",
          "name": "aggPkY",
          "type": "uint256"
        }
      ],
      "name": "shuffleEncPublicInput",
      "outputs": [
        {
          "internalType": "uint256[]",
          "name": "",
          "type": "uint256[]"
        }
      ],
      "stateMutability": "pure",
      "type": "function"
    }
  ],
  "bytecode": "0x611d5e610053600b82828239805160001a607314610046577f4e487b7100000000000000000000000000000000000000000000000000000000600052600060045260246000fd5b30600052607381538281f3fe73000000000000000000000000000000000000000030146080604052600436106100565760003560e01c806359a1ca0a1461005b57806367769b931461008b57806394c80c6b146100b4578063b5b19c4d146100dd575b600080fd5b610075600480360381019061007091906114bc565b61010d565b60405161008291906116c1565b60405180910390f35b81801561009757600080fd5b506100b260048036038101906100ad9190611997565b610253565b005b8180156100c057600080fd5b506100db60048036038101906100d691906114bc565b61032e565b005b6100f760048036038101906100f291906119f3565b610e11565b6040516101049190611b15565b60405180910390f35b6101156113a8565b8160000160009054906101000a900460ff168160000190600281111561013e5761013d6114e9565b5b90816002811115610152576101516114e9565b5b81525050816001018054806020026020016040519081016040528092919081815260200182805480156101a457602002820191906000526020600020905b815481526020019060010190808311610190575b50505050508160200181905250816002018054806020026020016040519081016040528092919081815260200182805480156101ff57602002820191906000526020600020905b8154815260200190600101908083116101eb575b50505050508160400181905250816005016040518060200160405290816000820154815250508160600181905250816006016040518060200160405290816000820154815250508160800181905250919050565b8060000160009054906101000a900460ff166002811115610277576102766114e9565b5b8260000151600281111561028e5761028d6114e9565b5b146102c45781600001518160000160006101000a81548160ff021916908360028111156102be576102bd6114e9565b5b02179055505b81602001518160010190805190602001906102e09291906113f5565b5081604001518160020190805190602001906102fd9291906113f5565b5081606001518160050160008201518160000155905050816080015181600601600082015181600001559050505050565b60006040518061068001604052807f0bb77a6ad63e739b4eacb2e09d6277c12ab8d8010534e0b62893f3f6bb95705181526020017f162d7e417903fa1c82f2d227e35b846b1133cfca4f558b5feb9fdcd5f81dd90281526020017f061c1436d1c3008037e887c8234dcf7c33c947ad93695b8000fcb4ab70477e3e81526020017f1b16e357953d68d73398c838aa883cc65ddae2aef75a4bc437e4232afdbe43c881526020017f1961ff2315812fd2f3e459a258f5ded2dde68cd35c79c8b9fb443e1860e1fbe481526020017f172dba8d231345b865223308fe44ba307c159de512787257113e2a7137f831b481526020017f2c6bfc7fe056ed38e26ec136ec8aec5f63ecc4b52c44afba967649cf1e6e231181526020017f10c347ae3592776a678f9fc29ecd029f8297367209a4f28f7cb49b09bffd414581526020017f0a677185fd6cd905b6a544b1006f4b3ea4a0dd596d47cabdab76a305859d928f81526020017e56bb35a182e54545be6d1ea242a6b0afdaecc266c1aadfb94d32b8d5c3dc9681526020017f2fc449e2dd0c5349d06092adc126e213858984584e429842d87bcc705837c76581526020017f1e63a5693d8b144378b08379f7ffdcabeb15e2e1490037b346c892925926574c81526020017f05d90e36c0fc967d6887b01380ca8f7264e45fd56692179d6346636a0ce10a6981526020017f0ddd95af0dc7f8e96c42e8f3691617c0db82583abe3b5e9187051005b9d6cd6181526020017f0d2c8ddcfdd735e9fdd0d51538022ba533cfa83b81d2acec70b17f505c17f04881526020017f2d66d2bb7bd385a5e2965d03466bc0579ce96b37ef9541be1aff46d01226964881526020017f1dfcdbf7e39fd2a9abeb0bba9446dc44db475f7a7533b645b568483ef44445c181526020017f0973a33d37dcd6bac5fbb80bd94667df758a27a55f74f2f47e9f346dd3599e5b81526020017f07ea98448dca17ae8d59c3e84258ae1b8e6b603cc01d67c6a65d88ba0119879d81526020017f28f4a492bbfdf5eed5ad1b304b95fb96040be5e4281bd288b1955f61bfac0afa81526020017f04c35ccbb891b482efb0d9615a446bf4965e59c524c5e99e5048d21370c4d17181526020017f0403f4c5f05d58ecdd3cba7f28c8a0cff1200cc996701751bd159f7a929a83ae81526020017f080bb2c9aa710cdece43712df035d5580ee2f909f70c86f3ee311a1bf11ec90e81526020017f2822909a7b938c9f0f2032d0004b3364f776e7097baf972e96b53a0af21e46cf81526020017f0b720cb8666a37228a60d13a78a44d755167cc280f0954db82b110cdec03dd2981526020017f1a0ca12c0b9d5ceaee4e186c1eb77be10992112608ce9b20abeec370ac26a2d881526020017f216b057078fda7e68f74840d69ddd2d9339fa5087224930aeb7b917c6b177ddd81526020017f239a26d12954771a03d624b21a260f447412b746b66eede628a2f0af3be0a21281526020017f2290daef092cdb12c7c1d72dd140aa1025d8e8c07373278b43229b7cc0ca11a381526020017f1de5305a20483a9b39f575599249f4aef3d3e9fc48c762a9751eebef9612bee281526020017f1390b1c9d9a82d2159b46c2bb964b4b2f33fce1689896c95545db5582db57f2e81526020017f26fea02c1cb0b62f637363a8456633b4fce66bff1447b0c5b9e86c0d74b80e8f81526020017f277f7b5cc9bfe6b5986519722f530a0573e13bb9e79b3d53b89b9bdcb8212d3f81526020017f1547e0c5efe888ce946b013b8243b78a5f678ea941c867f5892706ff56e4816481526020017f2ad530c497ea4713f4970a7f62956537cfc8588f07ddc027dd4fd0c6c10e5a4381526020017f1056ab97cf05bcdb2105fbc0b84f38b0965027abf7ca5361ac09f68adeb56eed81526020017f226bea5ceca4c99040ef2ebf3c5c51cfc588f331437889263f1a2b987d24fd8481526020017f0c52c9ec80c576338a26cdde50a9e65e85b87472c7fa91e20e755826d904f62b81526020017f2aebb7ffc8598c5238f2fdb7cb853b11eef3b252d7ebe49f6ef75ec72e38ec4f81526020017f092d4b125f827c10993cfadbfc2596532d4065212df9f63a767e853152cf132381526020017f1cc142514ccfce20877d91b82265542f585acc7abd05bb4ccbba837abced761a81526020017f06184da392a17823e9c1d38cb50980b17150ffa411965b03f0b0200d9557daa981526020017f2de1f83ba2bf5ef20a63881b4af4fb1149cc71d27a9d3f7471d3bab13401d72e81526020017f294b01e9bef3cbeec553d6e01ae9c7e9f0da12a81d5f874fa8820850b29446ef81526020017f1f5b4e9c9f3998ac1115c24cff5d56475b73fe0600bec2656accb54c6858db1081526020017f15ed766f45161e8cf3f750978ea18828b8cdf8211494307002aac2bb8194464281526020017f1d98dcee4ad7e854ab175c4c9d2596db3ff4d366f2b4768245f1b191c9abd2dc81526020017f0eea43c2e39c9465cfc56a2b80f746b1ff0389129e0eedf33600020246d66e1281526020017f267076b8c3d79269cb83185bd7758f05fb0029c23e2f429ac2a16cc7b449a17981526020017f1930694c542b3f428ca02285f978b47ecf06de207dc299736c06766d7f2e17e681526020017f23f14882a28cc7ba2b752c5eb037c0606451d81fc6a58b4c647e7fca3c3e941c81526020017f081ee42bc135a4e8e89208103bdf883a591cab8babacfcf201789f78bf9bcb318152509050610b0d8260000160009054906101000a900460ff16611332565b67ffffffffffffffff811115610b2657610b256116f9565b5b604051908082528060200260200182016040528015610b545781602001602082028036833780820191505090505b50826001019080519060200190610b6c9291906113f5565b50610b878260000160009054906101000a900460ff16611332565b67ffffffffffffffff811115610ba057610b9f6116f9565b5b604051908082528060200260200182016040528015610bce5781602001602082028036833780820191505090505b50826003019080519060200190610be69291906113f5565b50610c018260000160009054906101000a900460ff16611332565b67ffffffffffffffff811115610c1a57610c196116f9565b5b604051908082528060200260200182016040528015610c485781602001602082028036833780820191505090505b50826002019080519060200190610c609291906113f5565b50610c7b8260000160009054906101000a900460ff16611332565b67ffffffffffffffff811115610c9457610c936116f9565b5b604051908082528060200260200182016040528015610cc25781602001602082028036833780820191505090505b50826004019080519060200190610cda9291906113f5565b5060005b610cf88360000160009054906101000a900460ff16611332565b811015610d6e576000836001018281548110610d1757610d16611b37565b5b9060005260206000200181905550818160348110610d3857610d37611b37565b5b6020020151836002018281548110610d5357610d52611b37565b5b90600052602060002001819055508080600101915050610cde565b506040518060200160405280610d948460000160009054906101000a900460ff16611332565b6034610da09190611b95565b660fffffffffffff901c81525082600501600082015181600001559050506040518060200160405280610de38460000160009054906101000a900460ff16611332565b6034610def9190611b95565b660aed8c0af2428a901c81525082600601600082015181600001559050505050565b606085806020015151610e278260000151611332565b14610e67576040517f08c379a0000000000000000000000000000000000000000000000000000000008152600401610e5e90611c26565b60405180910390fd5b806020015151610e7a8260000151611332565b14610eba576040517f08c379a0000000000000000000000000000000000000000000000000000000008152600401610eb190611c26565b60405180910390fd5b85806020015151610ece8260000151611332565b14610f0e576040517f08c379a0000000000000000000000000000000000000000000000000000000008152600401610f0590611c26565b60405180910390fd5b806020015151610f218260000151611332565b14610f61576040517f08c379a0000000000000000000000000000000000000000000000000000000008152600401610f5890611c26565b60405180910390fd5b86600001516002811115610f7857610f776114e9565b5b88600001516002811115610f8f57610f8e6114e9565b5b14610fcf576040517f08c379a0000000000000000000000000000000000000000000000000000000008152600401610fc690611c92565b60405180910390fd5b6000610fde8960000151611332565b90506000600482610fef9190611cb2565b6007610ffb9190611cf4565b67ffffffffffffffff811115611014576110136116f9565b5b6040519080825280602002602001820160405280156110425781602001602082028036833780820191505090505b509050878160008151811061105a57611059611b37565b5b602002602001018181525050868160018151811061107b5761107a611b37565b5b602002602001018181525050858160028151811061109c5761109b611b37565b5b60200260200101818152505060005b8281101561122157896020015181815181106110ca576110c9611b37565b5b6020026020010151826003836110e09190611cf4565b815181106110f1576110f0611b37565b5b6020026020010181815250508960400151818151811061111457611113611b37565b5b6020026020010151828460038461112b9190611cf4565b6111359190611cf4565b8151811061114657611145611b37565b5b6020026020010181815250508a60200151818151811061116957611168611b37565b5b60200260200101518260028561117f9190611cb2565b60038461118c9190611cf4565b6111969190611cf4565b815181106111a7576111a6611b37565b5b6020026020010181815250508a6040015181815181106111ca576111c9611b37565b5b6020026020010151826003856111e09190611cb2565b6003846111ed9190611cf4565b6111f79190611cf4565b8151811061120857611207611b37565b5b60200260200101818152505080806001019150506110ab565b50886060015160000151818360046112399190611cb2565b60036112459190611cf4565b8151811061125657611255611b37565b5b602002602001018181525050886080015160000151818360046112799190611cb2565b60046112859190611cf4565b8151811061129657611295611b37565b5b602002602001018181525050896060015160000151818360046112b99190611cb2565b60056112c59190611cf4565b815181106112d6576112d5611b37565b5b602002602001018181525050896080015160000151818360046112f99190611cb2565b60066113059190611cf4565b8151811061131657611315611b37565b5b6020026020010181815250508094505050505095945050505050565b6000806002811115611347576113466114e9565b5b82600281111561135a576113596114e9565b5b0361136857600590506113a3565b6001600281111561137c5761137b6114e9565b5b82600281111561138f5761138e6114e9565b5b0361139d57601e90506113a2565b603490505b5b919050565b6040518060a00160405280600060028111156113c7576113c66114e9565b5b815260200160608152602001606081526020016113e2611442565b81526020016113ef611442565b81525090565b828054828255906000526020600020908101928215611431579160200282015b82811115611430578251825591602001919060010190611415565b5b50905061143e9190611455565b5090565b6040518060200160405280600081525090565b5b8082111561146e576000816000905550600101611456565b5090565b6000604051905090565b600080fd5b600080fd5b6000819050919050565b61149981611486565b81146114a457600080fd5b50565b6000813590506114b681611490565b92915050565b6000602082840312156114d2576114d161147c565b5b60006114e0848285016114a7565b91505092915050565b7f4e487b7100000000000000000000000000000000000000000000000000000000600052602160045260246000fd5b60038110611529576115286114e9565b5b50565b600081905061153a82611518565b919050565b600061154a8261152c565b9050919050565b61155a8161153f565b82525050565b600081519050919050565b600082825260208201905092915050565b6000819050602082019050919050565b6000819050919050565b61159f8161158c565b82525050565b60006115b18383611596565b60208301905092915050565b6000602082019050919050565b60006115d582611560565b6115df818561156b565b93506115ea8361157c565b8060005b8381101561161b57815161160288826115a5565b975061160d836115bd565b9250506001810190506115ee565b5085935050505092915050565b60208201600082015161163e6000850182611596565b50505050565b600060a08301600083015161165c6000860182611551565b506020830151848203602086015261167482826115ca565b9150506040830151848203604086015261168e82826115ca565b91505060608301516116a36060860182611628565b5060808301516116b66080860182611628565b508091505092915050565b600060208201905081810360008301526116db8184611644565b905092915050565b600080fd5b6000601f19601f8301169050919050565b7f4e487b7100000000000000000000000000000000000000000000000000000000600052604160045260246000fd5b611731826116e8565b810181811067ffffffffffffffff821117156117505761174f6116f9565b5b80604052505050565b6000611763611472565b905061176f8282611728565b919050565b600080fd5b6003811061178657600080fd5b50565b60008135905061179881611779565b92915050565b600080fd5b600067ffffffffffffffff8211156117be576117bd6116f9565b5b602082029050602081019050919050565b600080fd5b6117dd8161158c565b81146117e857600080fd5b50565b6000813590506117fa816117d4565b92915050565b600061181361180e846117a3565b611759565b90508083825260208201905060208402830185811115611836576118356117cf565b5b835b8181101561185f578061184b88826117eb565b845260208401935050602081019050611838565b5050509392505050565b600082601f83011261187e5761187d61179e565b5b813561188e848260208601611800565b91505092915050565b6000602082840312156118ad576118ac6116e3565b5b6118b76020611759565b905060006118c7848285016117eb565b60008301525092915050565b600060a082840312156118e9576118e86116e3565b5b6118f360a0611759565b9050600061190384828501611789565b600083015250602082013567ffffffffffffffff81111561192757611926611774565b5b61193384828501611869565b602083015250604082013567ffffffffffffffff81111561195757611956611774565b5b61196384828501611869565b604083015250606061197784828501611897565b606083015250608061198b84828501611897565b60808301525092915050565b600080604083850312156119ae576119ad61147c565b5b600083013567ffffffffffffffff8111156119cc576119cb611481565b5b6119d8858286016118d3565b92505060206119e9858286016114a7565b9150509250929050565b600080600080600060a08688031215611a0f57611a0e61147c565b5b600086013567ffffffffffffffff811115611a2d57611a2c611481565b5b611a39888289016118d3565b955050602086013567ffffffffffffffff811115611a5a57611a59611481565b5b611a66888289016118d3565b9450506040611a77888289016117eb565b9350506060611a88888289016117eb565b9250506080611a99888289016117eb565b9150509295509295909350565b600082825260208201905092915050565b6000611ac282611560565b611acc8185611aa6565b9350611ad78361157c565b8060005b83811015611b08578151611aef88826115a5565b9750611afa836115bd565b925050600181019050611adb565b5085935050505092915050565b60006020820190508181036000830152611b2f8184611ab7565b905092915050565b7f4e487b7100000000000000000000000000000000000000000000000000000000600052603260045260246000fd5b7f4e487b7100000000000000000000000000000000000000000000000000000000600052601160045260246000fd5b6000611ba08261158c565b9150611bab8361158c565b9250828203905081811115611bc357611bc2611b66565b5b92915050565b600082825260208201905092915050565b7f77726f6e67205830206c656e6774680000000000000000000000000000000000600082015250565b6000611c10600f83611bc9565b9150611c1b82611bda565b602082019050919050565b60006020820190508181036000830152611c3f81611c03565b9050919050565b7f4465636b20636f6e66696720696e636f6e73697374656e740000000000000000600082015250565b6000611c7c601883611bc9565b9150611c8782611c46565b602082019050919050565b60006020820190508181036000830152611cab81611c6f565b9050919050565b6000611cbd8261158c565b9150611cc88361158c565b9250828202611cd68161158c565b91508282048414831517611ced57611cec611b66565b5b5092915050565b6000611cff8261158c565b9150611d0a8361158c565b9250828201905080821115611d2257611d21611b66565b5b9291505056fea2646970667358221220171eae5da8f7dc527393af81bd9cc0a8315c452ea62c0cef7504352b8e9270ff64736f6c63430008180033",
  "linkReferences": {},
  "deployedLinkReferences": {}
}