{
  "_format": "hh-sol-artifact-1",
  "contractName": "ZkShuffleGame",
  "sourceName": "contracts/ZkShuffleGame.sol",
  "abi": [
    {
      "inputs": [
        {
          "internalType": "uint256",
          "name": "_maxPlayers",
          "type": "uint256"
        },
        {
          "internalType": "enum DeckConfig",
          "name": "_deckConfig",
          "type": "uint8"
        },
        {
          "internalType": "address",
          "name": "_zkShuffleAddress",
          "type": "address"
        }
      ],
      "stateMutability": "nonpayable",
      "type": "constructor"
    },
    {
      "inputs": [
        {
          "internalType": "address",
          "name": "owner",
          "type": "address"
        }
      ],
      "name": "OwnableInvalidOwner",
      "type": "error"
    },
    {
      "inputs": [
        {
          "internalType": "address",
          "name": "account",
          "type": "address"
        }
      ],
      "name": "OwnableUnauthorizedAccount",
      "type": "error"
    },
    {
      "anonymous": false,
      "inputs": [
        {
          "indexed": true,
          "internalType": "address",
          "name": "winner",
          "type": "address"
        },
        {
          "indexed": false,
          "internalType": "uint256",
          "name": "pot",
          "type": "uint256"
        }
      ],
      "name": "GameEnded",
      "type": "event"
    },
    {
      "anonymous": false,
      "inputs": [],
      "name": "GameStarted",
      "type": "event"
    },
    {
      "anonymous": false,
      "inputs": [
        {
          "indexed": true,
          "internalType": "address",
          "name": "previousOwner",
          "type": "address"
        },
        {
          "indexed": true,
          "internalType": "address",
          "name": "newOwner",
          "type": "address"
        }
      ],
      "name": "OwnershipTransferred",
      "type": "event"
    },
    {
      "anonymous": false,
      "inputs": [
        {
          "indexed": true,
          "internalType": "address",
          "name": "player",
          "type": "address"
        },
        {
          "indexed": false,
          "internalType": "uint256",
          "name": "hand",
          "type": "uint256"
        }
      ],
      "name": "PlayerHandDealt",
      "type": "event"
    },
    {
      "anonymous": false,
      "inputs": [
        {
          "indexed": true,
          "internalType": "address",
          "name": "player",
          "type": "address"
        }
      ],
      "name": "PlayerJoined",
      "type": "event"
    },
    {
      "inputs": [],
      "name": "addAIPlayer",
      "outputs": [],
      "stateMutability": "nonpayable",
      "type": "function"
    },
    {
      "inputs": [],
      "name": "allowJoinGame",
      "outputs": [],
      "stateMutability": "nonpayable",
      "type": "function"
    },
    {
      "inputs": [],
      "name": "cardConfig",
      "outputs": [
        {
          "internalType": "enum DeckConfig",
          "name": "",
          "type": "uint8"
        }
      ],
      "stateMutability": "view",
      "type": "function"
    },
    {
      "inputs": [],
      "name": "dealHands",
      "outputs": [],
      "stateMutability": "nonpayable",
      "type": "function"
    },
    {
      "inputs": [],
      "name": "deckConfig",
      "outputs": [
        {
          "internalType": "enum DeckConfig",
          "name": "",
          "type": "uint8"
        }
      ],
      "stateMutability": "view",
      "type": "function"
    },
    {
      "inputs": [
        {
          "internalType": "uint256",
          "name": "winnerIndex",
          "type": "uint256"
        }
      ],
      "name": "endGame",
      "outputs": [],
      "stateMutability": "nonpayable",
      "type": "function"
    },
    {
      "inputs": [],
      "name": "gameId",
      "outputs": [
        {
          "internalType": "uint256",
          "name": "",
          "type": "uint256"
        }
      ],
      "stateMutability": "view",
      "type": "function"
    },
    {
      "inputs": [],
      "name": "gameState",
      "outputs": [
        {
          "internalType": "enum ZkShuffleGame.GameState",
          "name": "",
          "type": "uint8"
        }
      ],
      "stateMutability": "view",
      "type": "function"
    },
    {
      "inputs": [],
      "name": "joinGame",
      "outputs": [],
      "stateMutability": "payable",
      "type": "function"
    },
    {
      "inputs": [],
      "name": "maxPlayers",
      "outputs": [
        {
          "internalType": "uint256",
          "name": "",
          "type": "uint256"
        }
      ],
      "stateMutability": "view",
      "type": "function"
    },
    {
      "inputs": [],
      "name": "moveToShuffleStage",
      "outputs": [],
      "stateMutability": "nonpayable",
      "type": "function"
    },
    {
      "inputs": [],
      "name": "owner",
      "outputs": [
        {
          "internalType": "address",
          "name": "",
          "type": "address"
        }
      ],
      "stateMutability": "view",
      "type": "function"
    },
    {
      "inputs": [
        {
          "internalType": "uint256",
          "name": "",
          "type": "uint256"
        }
      ],
      "name": "players",
      "outputs": [
        {
          "internalType": "address",
          "name": "playerAddress",
          "type": "address"
        },
        {
          "internalType": "uint256",
          "name": "hand",
          "type": "uint256"
        },
        {
          "internalType": "bool",
          "name": "isAI",
          "type": "bool"
        },
        {
          "internalType": "bool",
          "name": "hasJoined",
          "type": "bool"
        }
      ],
      "stateMutability": "view",
      "type": "function"
    },
    {
      "inputs": [],
      "name": "pot",
      "outputs": [
        {
          "internalType": "uint256",
          "name": "",
          "type": "uint256"
        }
      ],
      "stateMutability": "view",
      "type": "function"
    },
    {
      "inputs": [],
      "name": "renounceOwnership",
      "outputs": [],
      "stateMutability": "nonpayable",
      "type": "function"
    },
    {
      "inputs": [
        {
          "internalType": "address",
          "name": "newOwner",
          "type": "address"
        }
      ],
      "name": "transferOwnership",
      "outputs": [],
      "stateMutability": "nonpayable",
      "type": "function"
    },
    {
      "inputs": [],
      "name": "zkShuffle",
      "outputs": [
        {
          "internalType": "contract IShuffleStateManager",
          "name": "",
          "type": "address"
        }
      ],
      "stateMutability": "view",
      "type": "function"
    }
  ],
  "bytecode": "0x60806040523480156200001157600080fd5b5060405162002883380380620028838339818101604052810190620000379190620003b3565b33600073ffffffffffffffffffffffffffffffffffffffff168173ffffffffffffffffffffffffffffffffffffffff1603620000ad5760006040517f1e4fbdf7000000000000000000000000000000000000000000000000000000008152600401620000a4919062000420565b60405180910390fd5b620000be816200022260201b60201c565b506000831162000105576040517f08c379a0000000000000000000000000000000000000000000000000000000008152600401620000fc90620004c4565b60405180910390fd5b600073ffffffffffffffffffffffffffffffffffffffff168173ffffffffffffffffffffffffffffffffffffffff160362000177576040517f08c379a00000000000000000000000000000000000000000000000000000000081526004016200016e9062000536565b60405180910390fd5b8260028190555060008060146101000a81548160ff02191690836004811115620001a657620001a562000558565b5b021790555081600460006101000a81548160ff02191690836002811115620001d357620001d262000558565b5b021790555080600760006101000a81548173ffffffffffffffffffffffffffffffffffffffff021916908373ffffffffffffffffffffffffffffffffffffffff16021790555050505062000587565b60008060009054906101000a900473ffffffffffffffffffffffffffffffffffffffff169050816000806101000a81548173ffffffffffffffffffffffffffffffffffffffff021916908373ffffffffffffffffffffffffffffffffffffffff1602179055508173ffffffffffffffffffffffffffffffffffffffff168173ffffffffffffffffffffffffffffffffffffffff167f8be0079c531659141344cd1fd0a4f28419497f9722a3daafe3b4186f6b6457e060405160405180910390a35050565b600080fd5b6000819050919050565b6200030081620002eb565b81146200030c57600080fd5b50565b6000815190506200032081620002f5565b92915050565b600381106200033457600080fd5b50565b600081519050620003488162000326565b92915050565b600073ffffffffffffffffffffffffffffffffffffffff82169050919050565b60006200037b826200034e565b9050919050565b6200038d816200036e565b81146200039957600080fd5b50565b600081519050620003ad8162000382565b92915050565b600080600060608486031215620003cf57620003ce620002e6565b5b6000620003df868287016200030f565b9350506020620003f28682870162000337565b925050604062000405868287016200039c565b9150509250925092565b6200041a816200036e565b82525050565b60006020820190506200043760008301846200040f565b92915050565b600082825260208201905092915050565b7f4d617820706c6179657273206d7573742062652067726561746572207468616e60008201527f207a65726f000000000000000000000000000000000000000000000000000000602082015250565b6000620004ac6025836200043d565b9150620004b9826200044e565b604082019050919050565b60006020820190508181036000830152620004df816200049d565b9050919050565b7f496e76616c69642053687566666c65204d616e61676572206164647265737300600082015250565b60006200051e601f836200043d565b91506200052b82620004e6565b602082019050919050565b6000602082019050818103600083015262000551816200050f565b9050919050565b7f4e487b7100000000000000000000000000000000000000000000000000000000600052602160045260246000fd5b6122ec80620005976000396000f3fe6080604052600436106100fe5760003560e01c8063d11388d711610095578063d7c81b5511610064578063d7c81b5514610294578063d8fb90a7146102bf578063f2fde38b146102ea578063f48892c314610313578063f71d96cb1461032a576100fe565b8063d11388d714610231578063d1a104ae14610248578063d1f9c24d1461025f578063d4f77b1c1461028a576100fe565b8063715018a6116100d1578063715018a6146101af5780638da5cb5b146101c65780638dcd34ff146101f1578063d0399bb814610208576100fe565b80630c7d9e501461010357806337cf53311461012e5780634ba2363a146101595780634c2412a214610184575b600080fd5b34801561010f57600080fd5b5061011861036a565b60405161012591906118c7565b60405180910390f35b34801561013a57600080fd5b5061014361037d565b60405161015091906118c7565b60405180910390f35b34801561016557600080fd5b5061016e610394565b60405161017b91906118fb565b60405180910390f35b34801561019057600080fd5b5061019961039a565b6040516101a691906118fb565b60405180910390f35b3480156101bb57600080fd5b506101c46103a0565b005b3480156101d257600080fd5b506101db6103b4565b6040516101e89190611957565b60405180910390f35b3480156101fd57600080fd5b506102066103dd565b005b34801561021457600080fd5b5061022f600480360381019061022a91906119ad565b61055e565b005b34801561023d57600080fd5b5061024661083d565b005b34801561025457600080fd5b5061025d6109be565b005b34801561026b57600080fd5b50610274610b9b565b6040516102819190611a22565b60405180910390f35b610292610bae565b005b3480156102a057600080fd5b506102a9610e3c565b6040516102b691906118fb565b60405180910390f35b3480156102cb57600080fd5b506102d4610e42565b6040516102e19190611a9c565b60405180910390f35b3480156102f657600080fd5b50610311600480360381019061030c9190611ae3565b610e68565b005b34801561031f57600080fd5b50610328610eee565b005b34801561033657600080fd5b50610351600480360381019061034c91906119ad565b61122c565b6040516103619493929190611b2b565b60405180910390f35b600460009054906101000a900460ff1681565b6000600460009054906101000a900460ff16905090565b60035481565b60025481565b6103a86112a6565b6103b2600061132d565b565b60008060009054906101000a900473ffffffffffffffffffffffffffffffffffffffff16905090565b6103e56112a6565b600060048111156103f9576103f8611850565b5b600060149054906101000a900460ff16600481111561041b5761041a611850565b5b1461045b576040517f08c379a000000000000000000000000000000000000000000000000000000000815260040161045290611bcd565b60405180910390fd5b600063d11388d760e01b604051602401604051602081830303815290604052907bffffffffffffffffffffffffffffffffffffffffffffffffffffffff19166020820180517bffffffffffffffffffffffffffffffffffffffffffffffffffffffff83818316178352505050509050600760009054906101000a900473ffffffffffffffffffffffffffffffffffffffff1673ffffffffffffffffffffffffffffffffffffffff1663765718d7600854836040518363ffffffff1660e01b8152600401610529929190611c7d565b600060405180830381600087803b15801561054357600080fd5b505af1158015610557573d6000803e3d6000fd5b5050505050565b6105666112a6565b6003600481111561057a57610579611850565b5b600060149054906101000a900460ff16600481111561059c5761059b611850565b5b146105dc576040517f08c379a00000000000000000000000000000000000000000000000000000000081526004016105d390611cf9565b60405180910390fd5b6001805490508110610623576040517f08c379a000000000000000000000000000000000000000000000000000000000815260040161061a90611d65565b60405180910390fd5b60006001828154811061063957610638611d85565b5b90600052602060002090600302016040518060800160405290816000820160009054906101000a900473ffffffffffffffffffffffffffffffffffffffff1673ffffffffffffffffffffffffffffffffffffffff1673ffffffffffffffffffffffffffffffffffffffff168152602001600182015481526020016002820160009054906101000a900460ff161515151581526020016002820160019054906101000a900460ff1615151515815250509050806060015161072e576040517f08c379a000000000000000000000000000000000000000000000000000000000815260040161072590611e00565b60405180910390fd5b8060400151156107535761074d600060056113f190919063ffffffff16565b506107ba565b61076b816000015160056113f190919063ffffffff16565b50806000015173ffffffffffffffffffffffffffffffffffffffff166108fc6003549081150290604051600060405180830381858888f193505050501580156107b8573d6000803e3d6000fd5b505b806000015173ffffffffffffffffffffffffffffffffffffffff167fd4ba6fec82d9b0e8ffe50b9fed9e4be3b25c984ce1e0e016405a5528726e8a2c60035460405161080691906118fb565b60405180910390a26004600060146101000a81548160ff0219169083600481111561083457610833611850565b5b02179055505050565b6108456112a6565b6000600481111561085957610858611850565b5b600060149054906101000a900460ff16600481111561087b5761087a611850565b5b146108bb576040517f08c379a00000000000000000000000000000000000000000000000000000000081526004016108b290611e6c565b60405180910390fd5b600063f48892c360e01b604051602401604051602081830303815290604052907bffffffffffffffffffffffffffffffffffffffffffffffffffffffff19166020820180517bffffffffffffffffffffffffffffffffffffffffffffffffffffffff83818316178352505050509050600760009054906101000a900473ffffffffffffffffffffffffffffffffffffffff1673ffffffffffffffffffffffffffffffffffffffff1663f3c7e26d600854836040518363ffffffff1660e01b8152600401610989929190611c7d565b600060405180830381600087803b1580156109a357600080fd5b505af11580156109b7573d6000803e3d6000fd5b5050505050565b6109c66112a6565b600060048111156109da576109d9611850565b5b600060149054906101000a900460ff1660048111156109fc576109fb611850565b5b14610a3c576040517f08c379a0000000000000000000000000000000000000000000000000000000008152600401610a3390611ed8565b60405180910390fd5b60025460018054905010610a85576040517f08c379a0000000000000000000000000000000000000000000000000000000008152600401610a7c90611f44565b60405180910390fd5b60016040518060800160405280600073ffffffffffffffffffffffffffffffffffffffff1681526020016000815260200160011515815260200160011515815250908060018154018082558091505060019003906000526020600020906003020160009091909190915060008201518160000160006101000a81548173ffffffffffffffffffffffffffffffffffffffff021916908373ffffffffffffffffffffffffffffffffffffffff1602179055506020820151816001015560408201518160020160006101000a81548160ff02191690831515021790555060608201518160020160016101000a81548160ff021916908315150217905550505060025460018054905003610b9957610b98611421565b5b565b600060149054906101000a900460ff1681565b60006004811115610bc257610bc1611850565b5b600060149054906101000a900460ff166004811115610be457610be3611850565b5b14610c24576040517f08c379a0000000000000000000000000000000000000000000000000000000008152600401610c1b90611ed8565b60405180910390fd5b60025460018054905010610c6d576040517f08c379a0000000000000000000000000000000000000000000000000000000008152600401610c6490611f44565b60405180910390fd5b610c7633611624565b15610cb6576040517f08c379a0000000000000000000000000000000000000000000000000000000008152600401610cad90611fb0565b60405180910390fd5b600160405180608001604052803373ffffffffffffffffffffffffffffffffffffffff1681526020016000815260200160001515815260200160011515815250908060018154018082558091505060019003906000526020600020906003020160009091909190915060008201518160000160006101000a81548173ffffffffffffffffffffffffffffffffffffffff021916908373ffffffffffffffffffffffffffffffffffffffff1602179055506020820151816001015560408201518160020160006101000a81548160ff02191690831515021790555060608201518160020160016101000a81548160ff0219169083151502179055505050610dc633600561164190919063ffffffff16565b503460036000828254610dd99190611fff565b925050819055503373ffffffffffffffffffffffffffffffffffffffff167f31e760aa525306aba638a784082a013b6a1cc0a9a1789f3f22281c0453b10b1f60405160405180910390a260025460018054905003610e3a57610e39611421565b5b565b60085481565b600760009054906101000a900473ffffffffffffffffffffffffffffffffffffffff1681565b610e706112a6565b600073ffffffffffffffffffffffffffffffffffffffff168173ffffffffffffffffffffffffffffffffffffffff1603610ee25760006040517f1e4fbdf7000000000000000000000000000000000000000000000000000000008152600401610ed99190611957565b60405180910390fd5b610eeb8161132d565b50565b610ef66112a6565b60016004811115610f0a57610f09611850565b5b600060149054906101000a900460ff166004811115610f2c57610f2b611850565b5b14610f6c576040517f08c379a0000000000000000000000000000000000000000000000000000000008152600401610f639061207f565b60405180910390fd5b60005b6001805490508110156111fe576000600760009054906101000a900473ffffffffffffffffffffffffffffffffffffffff1673ffffffffffffffffffffffffffffffffffffffff1663ba284c2160085460018581548110610fd357610fd2611d85565b5b906000526020600020906003020160000160009054906101000a900473ffffffffffffffffffffffffffffffffffffffff166040518363ffffffff1660e01b815260040161102292919061209f565b602060405180830381865afa15801561103f573d6000803e3d6000fd5b505050506040513d601f19601f8201168201806040525081019061106391906120dd565b90506000600760009054906101000a900473ffffffffffffffffffffffffffffffffffffffff1673ffffffffffffffffffffffffffffffffffffffff16632b218bd6600854846040518363ffffffff1660e01b81526004016110c692919061210a565b602060405180830381865afa1580156110e3573d6000803e3d6000fd5b505050506040513d601f19601f8201168201806040525081019061110791906121ef565b905080600001516001848154811061112257611121611d85565b5b9060005260206000209060030201600101819055506001838154811061114b5761114a611d85565b5b906000526020600020906003020160000160009054906101000a900473ffffffffffffffffffffffffffffffffffffffff1673ffffffffffffffffffffffffffffffffffffffff167f816cb7f5037055f5249b6735748ed74422da77dc5bcf6684b21ae5d5494204d1600185815481106111c8576111c7611d85565b5b9060005260206000209060030201600101546040516111e791906118fb565b60405180910390a250508080600101915050610f6f565b506003600060146101000a81548160ff0219169083600481111561122557611224611850565b5b0217905550565b6001818154811061123c57600080fd5b90600052602060002090600302016000915090508060000160009054906101000a900473ffffffffffffffffffffffffffffffffffffffff16908060010154908060020160009054906101000a900460ff16908060020160019054906101000a900460ff16905084565b6112ae611671565b73ffffffffffffffffffffffffffffffffffffffff166112cc6103b4565b73ffffffffffffffffffffffffffffffffffffffff161461132b576112ef611671565b6040517f118cdaa70000000000000000000000000000000000000000000000000000000081526004016113229190611957565b60405180910390fd5b565b60008060009054906101000a900473ffffffffffffffffffffffffffffffffffffffff169050816000806101000a81548173ffffffffffffffffffffffffffffffffffffffff021916908373ffffffffffffffffffffffffffffffffffffffff1602179055508173ffffffffffffffffffffffffffffffffffffffff168173ffffffffffffffffffffffffffffffffffffffff167f8be0079c531659141344cd1fd0a4f28419497f9722a3daafe3b4186f6b6457e060405160405180910390a35050565b6000611419836000018373ffffffffffffffffffffffffffffffffffffffff1660001b611679565b905092915050565b6001600060146101000a81548160ff0219169083600481111561144757611446611850565b5b02179055507f762f260439bb4be3ef6e4dc2786e2e7bd187d3d80b79057d7a424fe98563e33560405160405180910390a1600760009054906101000a900473ffffffffffffffffffffffffffffffffffffffff1673ffffffffffffffffffffffffffffffffffffffff1663b4764f566001805490506040518263ffffffff1660e01b81526004016114d89190612238565b6020604051808303816000875af11580156114f7573d6000803e3d6000fd5b505050506040513d601f19601f8201168201806040525081019061151b91906120dd565b600881905550600063f48892c360e01b604051602401604051602081830303815290604052907bffffffffffffffffffffffffffffffffffffffffffffffffffffffff19166020820180517bffffffffffffffffffffffffffffffffffffffffffffffffffffffff83818316178352505050509050600760009054906101000a900473ffffffffffffffffffffffffffffffffffffffff1673ffffffffffffffffffffffffffffffffffffffff1663f3c7e26d600854836040518363ffffffff1660e01b81526004016115ef929190611c7d565b600060405180830381600087803b15801561160957600080fd5b505af115801561161d573d6000803e3d6000fd5b5050505050565b600061163a82600561178d90919063ffffffff16565b9050919050565b6000611669836000018373ffffffffffffffffffffffffffffffffffffffff1660001b6117bd565b905092915050565b600033905090565b600080836001016000848152602001908152602001600020549050600081146117815760006001826116ab9190612253565b90506000600186600001805490506116c39190612253565b90508082146117325760008660000182815481106116e4576116e3611d85565b5b906000526020600020015490508087600001848154811061170857611707611d85565b5b90600052602060002001819055508387600101600083815260200190815260200160002081905550505b8560000180548061174657611745612287565b5b600190038181906000526020600020016000905590558560010160008681526020019081526020016000206000905560019350505050611787565b60009150505b92915050565b60006117b5836000018373ffffffffffffffffffffffffffffffffffffffff1660001b61182d565b905092915050565b60006117c9838361182d565b611822578260000182908060018154018082558091505060019003906000526020600020016000909190919091505582600001805490508360010160008481526020019081526020016000208190555060019050611827565b600090505b92915050565b600080836001016000848152602001908152602001600020541415905092915050565b7f4e487b7100000000000000000000000000000000000000000000000000000000600052602160045260246000fd5b600381106118905761188f611850565b5b50565b60008190506118a18261187f565b919050565b60006118b182611893565b9050919050565b6118c1816118a6565b82525050565b60006020820190506118dc60008301846118b8565b92915050565b6000819050919050565b6118f5816118e2565b82525050565b600060208201905061191060008301846118ec565b92915050565b600073ffffffffffffffffffffffffffffffffffffffff82169050919050565b600061194182611916565b9050919050565b61195181611936565b82525050565b600060208201905061196c6000830184611948565b92915050565b6000604051905090565b600080fd5b61198a816118e2565b811461199557600080fd5b50565b6000813590506119a781611981565b92915050565b6000602082840312156119c3576119c261197c565b5b60006119d184828501611998565b91505092915050565b600581106119eb576119ea611850565b5b50565b60008190506119fc826119da565b919050565b6000611a0c826119ee565b9050919050565b611a1c81611a01565b82525050565b6000602082019050611a376000830184611a13565b92915050565b6000819050919050565b6000611a62611a5d611a5884611916565b611a3d565b611916565b9050919050565b6000611a7482611a47565b9050919050565b6000611a8682611a69565b9050919050565b611a9681611a7b565b82525050565b6000602082019050611ab16000830184611a8d565b92915050565b611ac081611936565b8114611acb57600080fd5b50565b600081359050611add81611ab7565b92915050565b600060208284031215611af957611af861197c565b5b6000611b0784828501611ace565b91505092915050565b60008115159050919050565b611b2581611b10565b82525050565b6000608082019050611b406000830187611948565b611b4d60208301866118ec565b611b5a6040830185611b1c565b611b676060830184611b1c565b95945050505050565b600082825260208201905092915050565b7f47616d65206e6f742077616974696e6720666f7220706c617965727300000000600082015250565b6000611bb7601c83611b70565b9150611bc282611b81565b602082019050919050565b60006020820190508181036000830152611be681611baa565b9050919050565b600081519050919050565b600082825260208201905092915050565b60005b83811015611c27578082015181840152602081019050611c0c565b60008484015250505050565b6000601f19601f8301169050919050565b6000611c4f82611bed565b611c598185611bf8565b9350611c69818560208601611c09565b611c7281611c33565b840191505092915050565b6000604082019050611c9260008301856118ec565b8181036020830152611ca48184611c44565b90509392505050565b7f47616d65206973206e6f7420696e2070726f6772657373000000000000000000600082015250565b6000611ce3601783611b70565b9150611cee82611cad565b602082019050919050565b60006020820190508181036000830152611d1281611cd6565b9050919050565b7f496e76616c69642077696e6e657220696e646578000000000000000000000000600082015250565b6000611d4f601483611b70565b9150611d5a82611d19565b602082019050919050565b60006020820190508181036000830152611d7e81611d42565b9050919050565b7f4e487b7100000000000000000000000000000000000000000000000000000000600052603260045260246000fd5b7f57696e6e6572206d757374206265206120706c61796572000000000000000000600082015250565b6000611dea601783611b70565b9150611df582611db4565b602082019050919050565b60006020820190508181036000830152611e1981611ddd565b9050919050565b7f47616d65206e6f7420696e2077616974696e6720737461746500000000000000600082015250565b6000611e56601983611b70565b9150611e6182611e20565b602082019050919050565b60006020820190508181036000830152611e8581611e49565b9050919050565b7f47616d65206973206e6f7420616363657074696e6720706c6179657273000000600082015250565b6000611ec2601d83611b70565b9150611ecd82611e8c565b602082019050919050565b60006020820190508181036000830152611ef181611eb5565b9050919050565b7f47616d652069732066756c6c0000000000000000000000000000000000000000600082015250565b6000611f2e600c83611b70565b9150611f3982611ef8565b602082019050919050565b60006020820190508181036000830152611f5d81611f21565b9050919050565b7f506c6179657220616c726561647920696e2067616d6500000000000000000000600082015250565b6000611f9a601683611b70565b9150611fa582611f64565b602082019050919050565b60006020820190508181036000830152611fc981611f8d565b9050919050565b7f4e487b7100000000000000000000000000000000000000000000000000000000600052601160045260246000fd5b600061200a826118e2565b9150612015836118e2565b925082820190508082111561202d5761202c611fd0565b5b92915050565b7f47616d65206973206e6f7420696e2073687566666c696e672073746174650000600082015250565b6000612069601e83611b70565b915061207482612033565b602082019050919050565b600060208201905081810360008301526120988161205c565b9050919050565b60006040820190506120b460008301856118ec565b6120c16020830184611948565b9392505050565b6000815190506120d781611981565b92915050565b6000602082840312156120f3576120f261197c565b5b6000612101848285016120c8565b91505092915050565b600060408201905061211f60008301856118ec565b61212c60208301846118ec565b9392505050565b600080fd5b7f4e487b7100000000000000000000000000000000000000000000000000000000600052604160045260246000fd5b61217082611c33565b810181811067ffffffffffffffff8211171561218f5761218e612138565b5b80604052505050565b60006121a2611972565b90506121ae8282612167565b919050565b6000602082840312156121c9576121c8612133565b5b6121d36020612198565b905060006121e3848285016120c8565b60008301525092915050565b6000602082840312156122055761220461197c565b5b6000612213848285016121b3565b91505092915050565b600060ff82169050919050565b6122328161221c565b82525050565b600060208201905061224d6000830184612229565b92915050565b600061225e826118e2565b9150612269836118e2565b925082820390508181111561228157612280611fd0565b5b92915050565b7f4e487b7100000000000000000000000000000000000000000000000000000000600052603160045260246000fdfea2646970667358221220b6c40c0d1e44f6d9dd84460d927c127eb6aa24127cb9ad99d064c21b0944c3bd64736f6c63430008180033",
  "linkReferences": {},
  "deployedLinkReferences": {}
}