{"@zk-shuffle/contracts/contracts/shuffle/Deck.sol":{"zkShuffleCrypto":{"abi":[{"inputs":[{"components":[{"internalType":"enum DeckConfig","name":"config","type":"DeckConfig"},{"internalType":"uint256[]","name":"X0","type":"uint256[]"},{"internalType":"uint256[]","name":"X1","type":"uint256[]"},{"components":[{"internalType":"uint256","name":"_data","type":"uint256"}],"internalType":"struct BitMaps.BitMap256","name":"selector0","type":"tuple"},{"components":[{"internalType":"uint256","name":"_data","type":"uint256"}],"internalType":"struct BitMaps.BitMap256","name":"selector1","type":"tuple"}],"internalType":"struct CompressedDeck","name":"encDeck","type":"tuple"},{"components":[{"internalType":"enum DeckConfig","name":"config","type":"DeckConfig"},{"internalType":"uint256[]","name":"X0","type":"uint256[]"},{"internalType":"uint256[]","name":"X1","type":"uint256[]"},{"components":[{"internalType":"uint256","name":"_data","type":"uint256"}],"internalType":"struct BitMaps.BitMap256","name":"selector0","type":"tuple"},{"components":[{"internalType":"uint256","name":"_data","type":"uint256"}],"internalType":"struct BitMaps.BitMap256","name":"selector1","type":"tuple"}],"internalType":"struct CompressedDeck","name":"oldDeck","type":"tuple"},{"internalType":"uint256","name":"nonce","type":"uint256"},{"internalType":"uint256","name":"aggPkX","type":"uint256"},{"internalType":"uint256","name":"aggPkY","type":"uint256"}],"name":"shuffleEncPublicInput","outputs":[{"internalType":"uint256[]","name":"","type":"uint256[]"}],"stateMutability":"pure","type":"function"}],"evm":{"bytecode":{"linkReferences":{},"object":"611d5e610053600b82828239805160001a607314610046577f4e487b7100000000000000000000000000000000000000000000000000000000600052600060045260246000fd5b30600052607381538281f3fe73000000000000000000000000000000000000000030146080604052600436106100565760003560e01c806359a1ca0a1461005b57806367769b931461008b57806394c80c6b146100b4578063b5b19c4d146100dd575b600080fd5b610075600480360381019061007091906114bc565b61010d565b60405161008291906116c1565b60405180910390f35b81801561009757600080fd5b506100b260048036038101906100ad9190611997565b610253565b005b8180156100c057600080fd5b506100db60048036038101906100d691906114bc565b61032e565b005b6100f760048036038101906100f291906119f3565b610e11565b6040516101049190611b15565b60405180910390f35b6101156113a8565b8160000160009054906101000a900460ff168160000190600281111561013e5761013d6114e9565b5b90816002811115610152576101516114e9565b5b81525050816001018054806020026020016040519081016040528092919081815260200182805480156101a457602002820191906000526020600020905b815481526020019060010190808311610190575b50505050508160200181905250816002018054806020026020016040519081016040528092919081815260200182805480156101ff57602002820191906000526020600020905b8154815260200190600101908083116101eb575b50505050508160400181905250816005016040518060200160405290816000820154815250508160600181905250816006016040518060200160405290816000820154815250508160800181905250919050565b8060000160009054906101000a900460ff166002811115610277576102766114e9565b5b8260000151600281111561028e5761028d6114e9565b5b146102c45781600001518160000160006101000a81548160ff021916908360028111156102be576102bd6114e9565b5b02179055505b81602001518160010190805190602001906102e09291906113f5565b5081604001518160020190805190602001906102fd9291906113f5565b5081606001518160050160008201518160000155905050816080015181600601600082015181600001559050505050565b60006040518061068001604052807f0bb77a6ad63e739b4eacb2e09d6277c12ab8d8010534e0b62893f3f6bb95705181526020017f162d7e417903fa1c82f2d227e35b846b1133cfca4f558b5feb9fdcd5f81dd90281526020017f061c1436d1c3008037e887c8234dcf7c33c947ad93695b8000fcb4ab70477e3e81526020017f1b16e357953d68d73398c838aa883cc65ddae2aef75a4bc437e4232afdbe43c881526020017f1961ff2315812fd2f3e459a258f5ded2dde68cd35c79c8b9fb443e1860e1fbe481526020017f172dba8d231345b865223308fe44ba307c159de512787257113e2a7137f831b481526020017f2c6bfc7fe056ed38e26ec136ec8aec5f63ecc4b52c44afba967649cf1e6e231181526020017f10c347ae3592776a678f9fc29ecd029f8297367209a4f28f7cb49b09bffd414581526020017f0a677185fd6cd905b6a544b1006f4b3ea4a0dd596d47cabdab76a305859d928f81526020017e56bb35a182e54545be6d1ea242a6b0afdaecc266c1aadfb94d32b8d5c3dc9681526020017f2fc449e2dd0c5349d06092adc126e213858984584e429842d87bcc705837c76581526020017f1e63a5693d8b144378b08379f7ffdcabeb15e2e1490037b346c892925926574c81526020017f05d90e36c0fc967d6887b01380ca8f7264e45fd56692179d6346636a0ce10a6981526020017f0ddd95af0dc7f8e96c42e8f3691617c0db82583abe3b5e9187051005b9d6cd6181526020017f0d2c8ddcfdd735e9fdd0d51538022ba533cfa83b81d2acec70b17f505c17f04881526020017f2d66d2bb7bd385a5e2965d03466bc0579ce96b37ef9541be1aff46d01226964881526020017f1dfcdbf7e39fd2a9abeb0bba9446dc44db475f7a7533b645b568483ef44445c181526020017f0973a33d37dcd6bac5fbb80bd94667df758a27a55f74f2f47e9f346dd3599e5b81526020017f07ea98448dca17ae8d59c3e84258ae1b8e6b603cc01d67c6a65d88ba0119879d81526020017f28f4a492bbfdf5eed5ad1b304b95fb96040be5e4281bd288b1955f61bfac0afa81526020017f04c35ccbb891b482efb0d9615a446bf4965e59c524c5e99e5048d21370c4d17181526020017f0403f4c5f05d58ecdd3cba7f28c8a0cff1200cc996701751bd159f7a929a83ae81526020017f080bb2c9aa710cdece43712df035d5580ee2f909f70c86f3ee311a1bf11ec90e81526020017f2822909a7b938c9f0f2032d0004b3364f776e7097baf972e96b53a0af21e46cf81526020017f0b720cb8666a37228a60d13a78a44d755167cc280f0954db82b110cdec03dd2981526020017f1a0ca12c0b9d5ceaee4e186c1eb77be10992112608ce9b20abeec370ac26a2d881526020017f216b057078fda7e68f74840d69ddd2d9339fa5087224930aeb7b917c6b177ddd81526020017f239a26d12954771a03d624b21a260f447412b746b66eede628a2f0af3be0a21281526020017f2290daef092cdb12c7c1d72dd140aa1025d8e8c07373278b43229b7cc0ca11a381526020017f1de5305a20483a9b39f575599249f4aef3d3e9fc48c762a9751eebef9612bee281526020017f1390b1c9d9a82d2159b46c2bb964b4b2f33fce1689896c95545db5582db57f2e81526020017f26fea02c1cb0b62f637363a8456633b4fce66bff1447b0c5b9e86c0d74b80e8f81526020017f277f7b5cc9bfe6b5986519722f530a0573e13bb9e79b3d53b89b9bdcb8212d3f81526020017f1547e0c5efe888ce946b013b8243b78a5f678ea941c867f5892706ff56e4816481526020017f2ad530c497ea4713f4970a7f62956537cfc8588f07ddc027dd4fd0c6c10e5a4381526020017f1056ab97cf05bcdb2105fbc0b84f38b0965027abf7ca5361ac09f68adeb56eed81526020017f226bea5ceca4c99040ef2ebf3c5c51cfc588f331437889263f1a2b987d24fd8481526020017f0c52c9ec80c576338a26cdde50a9e65e85b87472c7fa91e20e755826d904f62b81526020017f2aebb7ffc8598c5238f2fdb7cb853b11eef3b252d7ebe49f6ef75ec72e38ec4f81526020017f092d4b125f827c10993cfadbfc2596532d4065212df9f63a767e853152cf132381526020017f1cc142514ccfce20877d91b82265542f585acc7abd05bb4ccbba837abced761a81526020017f06184da392a17823e9c1d38cb50980b17150ffa411965b03f0b0200d9557daa981526020017f2de1f83ba2bf5ef20a63881b4af4fb1149cc71d27a9d3f7471d3bab13401d72e81526020017f294b01e9bef3cbeec553d6e01ae9c7e9f0da12a81d5f874fa8820850b29446ef81526020017f1f5b4e9c9f3998ac1115c24cff5d56475b73fe0600bec2656accb54c6858db1081526020017f15ed766f45161e8cf3f750978ea18828b8cdf8211494307002aac2bb8194464281526020017f1d98dcee4ad7e854ab175c4c9d2596db3ff4d366f2b4768245f1b191c9abd2dc81526020017f0eea43c2e39c9465cfc56a2b80f746b1ff0389129e0eedf33600020246d66e1281526020017f267076b8c3d79269cb83185bd7758f05fb0029c23e2f429ac2a16cc7b449a17981526020017f1930694c542b3f428ca02285f978b47ecf06de207dc299736c06766d7f2e17e681526020017f23f14882a28cc7ba2b752c5eb037c0606451d81fc6a58b4c647e7fca3c3e941c81526020017f081ee42bc135a4e8e89208103bdf883a591cab8babacfcf201789f78bf9bcb318152509050610b0d8260000160009054906101000a900460ff16611332565b67ffffffffffffffff811115610b2657610b256116f9565b5b604051908082528060200260200182016040528015610b545781602001602082028036833780820191505090505b50826001019080519060200190610b6c9291906113f5565b50610b878260000160009054906101000a900460ff16611332565b67ffffffffffffffff811115610ba057610b9f6116f9565b5b604051908082528060200260200182016040528015610bce5781602001602082028036833780820191505090505b50826003019080519060200190610be69291906113f5565b50610c018260000160009054906101000a900460ff16611332565b67ffffffffffffffff811115610c1a57610c196116f9565b5b604051908082528060200260200182016040528015610c485781602001602082028036833780820191505090505b50826002019080519060200190610c609291906113f5565b50610c7b8260000160009054906101000a900460ff16611332565b67ffffffffffffffff811115610c9457610c936116f9565b5b604051908082528060200260200182016040528015610cc25781602001602082028036833780820191505090505b50826004019080519060200190610cda9291906113f5565b5060005b610cf88360000160009054906101000a900460ff16611332565b811015610d6e576000836001018281548110610d1757610d16611b37565b5b9060005260206000200181905550818160348110610d3857610d37611b37565b5b6020020151836002018281548110610d5357610d52611b37565b5b90600052602060002001819055508080600101915050610cde565b506040518060200160405280610d948460000160009054906101000a900460ff16611332565b6034610da09190611b95565b660fffffffffffff901c81525082600501600082015181600001559050506040518060200160405280610de38460000160009054906101000a900460ff16611332565b6034610def9190611b95565b660aed8c0af2428a901c81525082600601600082015181600001559050505050565b606085806020015151610e278260000151611332565b14610e67576040517f08c379a0000000000000000000000000000000000000000000000000000000008152600401610e5e90611c26565b60405180910390fd5b806020015151610e7a8260000151611332565b14610eba576040517f08c379a0000000000000000000000000000000000000000000000000000000008152600401610eb190611c26565b60405180910390fd5b85806020015151610ece8260000151611332565b14610f0e576040517f08c379a0000000000000000000000000000000000000000000000000000000008152600401610f0590611c26565b60405180910390fd5b806020015151610f218260000151611332565b14610f61576040517f08c379a0000000000000000000000000000000000000000000000000000000008152600401610f5890611c26565b60405180910390fd5b86600001516002811115610f7857610f776114e9565b5b88600001516002811115610f8f57610f8e6114e9565b5b14610fcf576040517f08c379a0000000000000000000000000000000000000000000000000000000008152600401610fc690611c92565b60405180910390fd5b6000610fde8960000151611332565b90506000600482610fef9190611cb2565b6007610ffb9190611cf4565b67ffffffffffffffff811115611014576110136116f9565b5b6040519080825280602002602001820160405280156110425781602001602082028036833780820191505090505b509050878160008151811061105a57611059611b37565b5b602002602001018181525050868160018151811061107b5761107a611b37565b5b602002602001018181525050858160028151811061109c5761109b611b37565b5b60200260200101818152505060005b8281101561122157896020015181815181106110ca576110c9611b37565b5b6020026020010151826003836110e09190611cf4565b815181106110f1576110f0611b37565b5b6020026020010181815250508960400151818151811061111457611113611b37565b5b6020026020010151828460038461112b9190611cf4565b6111359190611cf4565b8151811061114657611145611b37565b5b6020026020010181815250508a60200151818151811061116957611168611b37565b5b60200260200101518260028561117f9190611cb2565b60038461118c9190611cf4565b6111969190611cf4565b815181106111a7576111a6611b37565b5b6020026020010181815250508a6040015181815181106111ca576111c9611b37565b5b6020026020010151826003856111e09190611cb2565b6003846111ed9190611cf4565b6111f79190611cf4565b8151811061120857611207611b37565b5b60200260200101818152505080806001019150506110ab565b50886060015160000151818360046112399190611cb2565b60036112459190611cf4565b8151811061125657611255611b37565b5b602002602001018181525050886080015160000151818360046112799190611cb2565b60046112859190611cf4565b8151811061129657611295611b37565b5b602002602001018181525050896060015160000151818360046112b99190611cb2565b60056112c59190611cf4565b815181106112d6576112d5611b37565b5b602002602001018181525050896080015160000151818360046112f99190611cb2565b60066113059190611cf4565b8151811061131657611315611b37565b5b6020026020010181815250508094505050505095945050505050565b6000806002811115611347576113466114e9565b5b82600281111561135a576113596114e9565b5b0361136857600590506113a3565b6001600281111561137c5761137b6114e9565b5b82600281111561138f5761138e6114e9565b5b0361139d57601e90506113a2565b603490505b5b919050565b6040518060a00160405280600060028111156113c7576113c66114e9565b5b815260200160608152602001606081526020016113e2611442565b81526020016113ef611442565b81525090565b828054828255906000526020600020908101928215611431579160200282015b82811115611430578251825591602001919060010190611415565b5b50905061143e9190611455565b5090565b6040518060200160405280600081525090565b5b8082111561146e576000816000905550600101611456565b5090565b6000604051905090565b600080fd5b600080fd5b6000819050919050565b61149981611486565b81146114a457600080fd5b50565b6000813590506114b681611490565b92915050565b6000602082840312156114d2576114d161147c565b5b60006114e0848285016114a7565b91505092915050565b7f4e487b7100000000000000000000000000000000000000000000000000000000600052602160045260246000fd5b60038110611529576115286114e9565b5b50565b600081905061153a82611518565b919050565b600061154a8261152c565b9050919050565b61155a8161153f565b82525050565b600081519050919050565b600082825260208201905092915050565b6000819050602082019050919050565b6000819050919050565b61159f8161158c565b82525050565b60006115b18383611596565b60208301905092915050565b6000602082019050919050565b60006115d582611560565b6115df818561156b565b93506115ea8361157c565b8060005b8381101561161b57815161160288826115a5565b975061160d836115bd565b9250506001810190506115ee565b5085935050505092915050565b60208201600082015161163e6000850182611596565b50505050565b600060a08301600083015161165c6000860182611551565b506020830151848203602086015261167482826115ca565b9150506040830151848203604086015261168e82826115ca565b91505060608301516116a36060860182611628565b5060808301516116b66080860182611628565b508091505092915050565b600060208201905081810360008301526116db8184611644565b905092915050565b600080fd5b6000601f19601f8301169050919050565b7f4e487b7100000000000000000000000000000000000000000000000000000000600052604160045260246000fd5b611731826116e8565b810181811067ffffffffffffffff821117156117505761174f6116f9565b5b80604052505050565b6000611763611472565b905061176f8282611728565b919050565b600080fd5b6003811061178657600080fd5b50565b60008135905061179881611779565b92915050565b600080fd5b600067ffffffffffffffff8211156117be576117bd6116f9565b5b602082029050602081019050919050565b600080fd5b6117dd8161158c565b81146117e857600080fd5b50565b6000813590506117fa816117d4565b92915050565b600061181361180e846117a3565b611759565b90508083825260208201905060208402830185811115611836576118356117cf565b5b835b8181101561185f578061184b88826117eb565b845260208401935050602081019050611838565b5050509392505050565b600082601f83011261187e5761187d61179e565b5b813561188e848260208601611800565b91505092915050565b6000602082840312156118ad576118ac6116e3565b5b6118b76020611759565b905060006118c7848285016117eb565b60008301525092915050565b600060a082840312156118e9576118e86116e3565b5b6118f360a0611759565b9050600061190384828501611789565b600083015250602082013567ffffffffffffffff81111561192757611926611774565b5b61193384828501611869565b602083015250604082013567ffffffffffffffff81111561195757611956611774565b5b61196384828501611869565b604083015250606061197784828501611897565b606083015250608061198b84828501611897565b60808301525092915050565b600080604083850312156119ae576119ad61147c565b5b600083013567ffffffffffffffff8111156119cc576119cb611481565b5b6119d8858286016118d3565b92505060206119e9858286016114a7565b9150509250929050565b600080600080600060a08688031215611a0f57611a0e61147c565b5b600086013567ffffffffffffffff811115611a2d57611a2c611481565b5b611a39888289016118d3565b955050602086013567ffffffffffffffff811115611a5a57611a59611481565b5b611a66888289016118d3565b9450506040611a77888289016117eb565b9350506060611a88888289016117eb565b9250506080611a99888289016117eb565b9150509295509295909350565b600082825260208201905092915050565b6000611ac282611560565b611acc8185611aa6565b9350611ad78361157c565b8060005b83811015611b08578151611aef88826115a5565b9750611afa836115bd565b925050600181019050611adb565b5085935050505092915050565b60006020820190508181036000830152611b2f8184611ab7565b905092915050565b7f4e487b7100000000000000000000000000000000000000000000000000000000600052603260045260246000fd5b7f4e487b7100000000000000000000000000000000000000000000000000000000600052601160045260246000fd5b6000611ba08261158c565b9150611bab8361158c565b9250828203905081811115611bc357611bc2611b66565b5b92915050565b600082825260208201905092915050565b7f77726f6e67205830206c656e6774680000000000000000000000000000000000600082015250565b6000611c10600f83611bc9565b9150611c1b82611bda565b602082019050919050565b60006020820190508181036000830152611c3f81611c03565b9050919050565b7f4465636b20636f6e66696720696e636f6e73697374656e740000000000000000600082015250565b6000611c7c601883611bc9565b9150611c8782611c46565b602082019050919050565b60006020820190508181036000830152611cab81611c6f565b9050919050565b6000611cbd8261158c565b9150611cc88361158c565b9250828202611cd68161158c565b91508282048414831517611ced57611cec611b66565b5b5092915050565b6000611cff8261158c565b9150611d0a8361158c565b9250828201905080821115611d2257611d21611b66565b5b9291505056fea2646970667358221220171eae5da8f7dc527393af81bd9cc0a8315c452ea62c0cef7504352b8e9270ff64736f6c63430008180033","opcodes":"PUSH2 0x1D5E PUSH2 0x53 PUSH1 0xB DUP3 DUP3 DUP3 CODECOPY DUP1 MLOAD PUSH1 0x0 BYTE PUSH1 0x73 EQ PUSH2 0x46 JUMPI PUSH32 0x4E487B7100000000000000000000000000000000000000000000000000000000 PUSH1 0x0 MSTORE PUSH1 0x0 PUSH1 0x4 MSTORE PUSH1 0x24 PUSH1 0x0 REVERT JUMPDEST ADDRESS PUSH1 0x0 MSTORE PUSH1 0x73 DUP2 MSTORE8 DUP3 DUP2 RETURN INVALID PUSH20 0x0 ADDRESS EQ PUSH1 0x80 PUSH1 0x40 MSTORE PUSH1 0x4 CALLDATASIZE LT PUSH2 0x56 JUMPI PUSH1 0x0 CALLDATALOAD PUSH1 0xE0 SHR DUP1 PUSH4 0x59A1CA0A EQ PUSH2 0x5B JUMPI DUP1 PUSH4 0x67769B93 EQ PUSH2 0x8B JUMPI DUP1 PUSH4 0x94C80C6B EQ PUSH2 0xB4 JUMPI DUP1 PUSH4 0xB5B19C4D EQ PUSH2 0xDD JUMPI JUMPDEST PUSH1 0x0 DUP1 REVERT JUMPDEST PUSH2 0x75 PUSH1 0x4 DUP1 CALLDATASIZE SUB DUP2 ADD SWAP1 PUSH2 0x70 SWAP2 SWAP1 PUSH2 0x14BC JUMP JUMPDEST PUSH2 0x10D JUMP JUMPDEST PUSH1 0x40 MLOAD PUSH2 0x82 SWAP2 SWAP1 PUSH2 0x16C1 JUMP JUMPDEST PUSH1 0x40 MLOAD DUP1 SWAP2 SUB SWAP1 RETURN JUMPDEST DUP2 DUP1 ISZERO PUSH2 0x97 JUMPI PUSH1 0x0 DUP1 REVERT JUMPDEST POP PUSH2 0xB2 PUSH1 0x4 DUP1 CALLDATASIZE SUB DUP2 ADD SWAP1 PUSH2 0xAD SWAP2 SWAP1 PUSH2 0x1997 JUMP JUMPDEST PUSH2 0x253 JUMP JUMPDEST STOP JUMPDEST DUP2 DUP1 ISZERO PUSH2 0xC0 JUMPI PUSH1 0x0 DUP1 REVERT JUMPDEST POP PUSH2 0xDB PUSH1 0x4 DUP1 CALLDATASIZE SUB DUP2 ADD SWAP1 PUSH2 0xD6 SWAP2 SWAP1 PUSH2 0x14BC JUMP JUMPDEST PUSH2 0x32E JUMP JUMPDEST STOP JUMPDEST PUSH2 0xF7 PUSH1 0x4 DUP1 CALLDATASIZE SUB DUP2 ADD SWAP1 PUSH2 0xF2 SWAP2 SWAP1 PUSH2 0x19F3 JUMP JUMPDEST PUSH2 0xE11 JUMP JUMPDEST PUSH1 0x40 MLOAD PUSH2 0x104 SWAP2 SWAP1 PUSH2 0x1B15 JUMP JUMPDEST PUSH1 0x40 MLOAD DUP1 SWAP2 SUB SWAP1 RETURN JUMPDEST PUSH2 0x115 PUSH2 0x13A8 JUMP JUMPDEST DUP2 PUSH1 0x0 ADD PUSH1 0x0 SWAP1 SLOAD SWAP1 PUSH2 0x100 EXP SWAP1 DIV PUSH1 0xFF AND DUP2 PUSH1 0x0 ADD SWAP1 PUSH1 0x2 DUP2 GT ISZERO PUSH2 0x13E JUMPI PUSH2 0x13D PUSH2 0x14E9 JUMP JUMPDEST JUMPDEST SWAP1 DUP2 PUSH1 0x2 DUP2 GT ISZERO PUSH2 0x152 JUMPI PUSH2 0x151 PUSH2 0x14E9 JUMP JUMPDEST JUMPDEST DUP2 MSTORE POP POP DUP2 PUSH1 0x1 ADD DUP1 SLOAD DUP1 PUSH1 0x20 MUL PUSH1 0x20 ADD PUSH1 0x40 MLOAD SWAP1 DUP2 ADD PUSH1 0x40 MSTORE DUP1 SWAP3 SWAP2 SWAP1 DUP2 DUP2 MSTORE PUSH1 0x20 ADD DUP3 DUP1 SLOAD DUP1 ISZERO PUSH2 0x1A4 JUMPI PUSH1 0x20 MUL DUP3 ADD SWAP2 SWAP1 PUSH1 0x0 MSTORE PUSH1 0x20 PUSH1 0x0 KECCAK256 SWAP1 JUMPDEST DUP2 SLOAD DUP2 MSTORE PUSH1 0x20 ADD SWAP1 PUSH1 0x1 ADD SWAP1 DUP1 DUP4 GT PUSH2 0x190 JUMPI JUMPDEST POP POP POP POP POP DUP2 PUSH1 0x20 ADD DUP2 SWAP1 MSTORE POP DUP2 PUSH1 0x2 ADD DUP1 SLOAD DUP1 PUSH1 0x20 MUL PUSH1 0x20 ADD PUSH1 0x40 MLOAD SWAP1 DUP2 ADD PUSH1 0x40 MSTORE DUP1 SWAP3 SWAP2 SWAP1 DUP2 DUP2 MSTORE PUSH1 0x20 ADD DUP3 DUP1 SLOAD DUP1 ISZERO PUSH2 0x1FF JUMPI PUSH1 0x20 MUL DUP3 ADD SWAP2 SWAP1 PUSH1 0x0 MSTORE PUSH1 0x20 PUSH1 0x0 KECCAK256 SWAP1 JUMPDEST DUP2 SLOAD DUP2 MSTORE PUSH1 0x20 ADD SWAP1 PUSH1 0x1 ADD SWAP1 DUP1 DUP4 GT PUSH2 0x1EB JUMPI JUMPDEST POP POP POP POP POP DUP2 PUSH1 0x40 ADD DUP2 SWAP1 MSTORE POP DUP2 PUSH1 0x5 ADD PUSH1 0x40 MLOAD DUP1 PUSH1 0x20 ADD PUSH1 0x40 MSTORE SWAP1 DUP2 PUSH1 0x0 DUP3 ADD SLOAD DUP2 MSTORE POP POP DUP2 PUSH1 0x60 ADD DUP2 SWAP1 MSTORE POP DUP2 PUSH1 0x6 ADD PUSH1 0x40 MLOAD DUP1 PUSH1 0x20 ADD PUSH1 0x40 MSTORE SWAP1 DUP2 PUSH1 0x0 DUP3 ADD SLOAD DUP2 MSTORE POP POP DUP2 PUSH1 0x80 ADD DUP2 SWAP1 MSTORE POP SWAP2 SWAP1 POP JUMP JUMPDEST DUP1 PUSH1 0x0 ADD PUSH1 0x0 SWAP1 SLOAD SWAP1 PUSH2 0x100 EXP SWAP1 DIV PUSH1 0xFF AND PUSH1 0x2 DUP2 GT ISZERO PUSH2 0x277 JUMPI PUSH2 0x276 PUSH2 0x14E9 JUMP JUMPDEST JUMPDEST DUP3 PUSH1 0x0 ADD MLOAD PUSH1 0x2 DUP2 GT ISZERO PUSH2 0x28E JUMPI PUSH2 0x28D PUSH2 0x14E9 JUMP JUMPDEST JUMPDEST EQ PUSH2 0x2C4 JUMPI DUP2 PUSH1 0x0 ADD MLOAD DUP2 PUSH1 0x0 ADD PUSH1 0x0 PUSH2 0x100 EXP DUP2 SLOAD DUP2 PUSH1 0xFF MUL NOT AND SWAP1 DUP4 PUSH1 0x2 DUP2 GT ISZERO PUSH2 0x2BE JUMPI PUSH2 0x2BD PUSH2 0x14E9 JUMP JUMPDEST JUMPDEST MUL OR SWAP1 SSTORE POP JUMPDEST DUP2 PUSH1 0x20 ADD MLOAD DUP2 PUSH1 0x1 ADD SWAP1 DUP1 MLOAD SWAP1 PUSH1 0x20 ADD SWAP1 PUSH2 0x2E0 SWAP3 SWAP2 SWAP1 PUSH2 0x13F5 JUMP JUMPDEST POP DUP2 PUSH1 0x40 ADD MLOAD DUP2 PUSH1 0x2 ADD SWAP1 DUP1 MLOAD SWAP1 PUSH1 0x20 ADD SWAP1 PUSH2 0x2FD SWAP3 SWAP2 SWAP1 PUSH2 0x13F5 JUMP JUMPDEST POP DUP2 PUSH1 0x60 ADD MLOAD DUP2 PUSH1 0x5 ADD PUSH1 0x0 DUP3 ADD MLOAD DUP2 PUSH1 0x0 ADD SSTORE SWAP1 POP POP DUP2 PUSH1 0x80 ADD MLOAD DUP2 PUSH1 0x6 ADD PUSH1 0x0 DUP3 ADD MLOAD DUP2 PUSH1 0x0 ADD SSTORE SWAP1 POP POP POP POP JUMP JUMPDEST PUSH1 0x0 PUSH1 0x40 MLOAD DUP1 PUSH2 0x680 ADD PUSH1 0x40 MSTORE DUP1 PUSH32 0xBB77A6AD63E739B4EACB2E09D6277C12AB8D8010534E0B62893F3F6BB957051 DUP2 MSTORE PUSH1 0x20 ADD PUSH32 0x162D7E417903FA1C82F2D227E35B846B1133CFCA4F558B5FEB9FDCD5F81DD902 DUP2 MSTORE PUSH1 0x20 ADD PUSH32 0x61C1436D1C3008037E887C8234DCF7C33C947AD93695B8000FCB4AB70477E3E DUP2 MSTORE PUSH1 0x20 ADD PUSH32 0x1B16E357953D68D73398C838AA883CC65DDAE2AEF75A4BC437E4232AFDBE43C8 DUP2 MSTORE PUSH1 0x20 ADD PUSH32 0x1961FF2315812FD2F3E459A258F5DED2DDE68CD35C79C8B9FB443E1860E1FBE4 DUP2 MSTORE PUSH1 0x20 ADD PUSH32 0x172DBA8D231345B865223308FE44BA307C159DE512787257113E2A7137F831B4 DUP2 MSTORE PUSH1 0x20 ADD PUSH32 0x2C6BFC7FE056ED38E26EC136EC8AEC5F63ECC4B52C44AFBA967649CF1E6E2311 DUP2 MSTORE PUSH1 0x20 ADD PUSH32 0x10C347AE3592776A678F9FC29ECD029F8297367209A4F28F7CB49B09BFFD4145 DUP2 MSTORE PUSH1 0x20 ADD PUSH32 0xA677185FD6CD905B6A544B1006F4B3EA4A0DD596D47CABDAB76A305859D928F DUP2 MSTORE PUSH1 0x20 ADD PUSH31 0x56BB35A182E54545BE6D1EA242A6B0AFDAECC266C1AADFB94D32B8D5C3DC96 DUP2 MSTORE PUSH1 0x20 ADD PUSH32 0x2FC449E2DD0C5349D06092ADC126E213858984584E429842D87BCC705837C765 DUP2 MSTORE PUSH1 0x20 ADD PUSH32 0x1E63A5693D8B144378B08379F7FFDCABEB15E2E1490037B346C892925926574C DUP2 MSTORE PUSH1 0x20 ADD PUSH32 0x5D90E36C0FC967D6887B01380CA8F7264E45FD56692179D6346636A0CE10A69 DUP2 MSTORE PUSH1 0x20 ADD PUSH32 0xDDD95AF0DC7F8E96C42E8F3691617C0DB82583ABE3B5E9187051005B9D6CD61 DUP2 MSTORE PUSH1 0x20 ADD PUSH32 0xD2C8DDCFDD735E9FDD0D51538022BA533CFA83B81D2ACEC70B17F505C17F048 DUP2 MSTORE PUSH1 0x20 ADD PUSH32 0x2D66D2BB7BD385A5E2965D03466BC0579CE96B37EF9541BE1AFF46D012269648 DUP2 MSTORE PUSH1 0x20 ADD PUSH32 0x1DFCDBF7E39FD2A9ABEB0BBA9446DC44DB475F7A7533B645B568483EF44445C1 DUP2 MSTORE PUSH1 0x20 ADD PUSH32 0x973A33D37DCD6BAC5FBB80BD94667DF758A27A55F74F2F47E9F346DD3599E5B DUP2 MSTORE PUSH1 0x20 ADD PUSH32 0x7EA98448DCA17AE8D59C3E84258AE1B8E6B603CC01D67C6A65D88BA0119879D DUP2 MSTORE PUSH1 0x20 ADD PUSH32 0x28F4A492BBFDF5EED5AD1B304B95FB96040BE5E4281BD288B1955F61BFAC0AFA DUP2 MSTORE PUSH1 0x20 ADD PUSH32 0x4C35CCBB891B482EFB0D9615A446BF4965E59C524C5E99E5048D21370C4D171 DUP2 MSTORE PUSH1 0x20 ADD PUSH32 0x403F4C5F05D58ECDD3CBA7F28C8A0CFF1200CC996701751BD159F7A929A83AE DUP2 MSTORE PUSH1 0x20 ADD PUSH32 0x80BB2C9AA710CDECE43712DF035D5580EE2F909F70C86F3EE311A1BF11EC90E DUP2 MSTORE PUSH1 0x20 ADD PUSH32 0x2822909A7B938C9F0F2032D0004B3364F776E7097BAF972E96B53A0AF21E46CF DUP2 MSTORE PUSH1 0x20 ADD PUSH32 0xB720CB8666A37228A60D13A78A44D755167CC280F0954DB82B110CDEC03DD29 DUP2 MSTORE PUSH1 0x20 ADD PUSH32 0x1A0CA12C0B9D5CEAEE4E186C1EB77BE10992112608CE9B20ABEEC370AC26A2D8 DUP2 MSTORE PUSH1 0x20 ADD PUSH32 0x216B057078FDA7E68F74840D69DDD2D9339FA5087224930AEB7B917C6B177DDD DUP2 MSTORE PUSH1 0x20 ADD PUSH32 0x239A26D12954771A03D624B21A260F447412B746B66EEDE628A2F0AF3BE0A212 DUP2 MSTORE PUSH1 0x20 ADD PUSH32 0x2290DAEF092CDB12C7C1D72DD140AA1025D8E8C07373278B43229B7CC0CA11A3 DUP2 MSTORE PUSH1 0x20 ADD PUSH32 0x1DE5305A20483A9B39F575599249F4AEF3D3E9FC48C762A9751EEBEF9612BEE2 DUP2 MSTORE PUSH1 0x20 ADD PUSH32 0x1390B1C9D9A82D2159B46C2BB964B4B2F33FCE1689896C95545DB5582DB57F2E DUP2 MSTORE PUSH1 0x20 ADD PUSH32 0x26FEA02C1CB0B62F637363A8456633B4FCE66BFF1447B0C5B9E86C0D74B80E8F DUP2 MSTORE PUSH1 0x20 ADD PUSH32 0x277F7B5CC9BFE6B5986519722F530A0573E13BB9E79B3D53B89B9BDCB8212D3F DUP2 MSTORE PUSH1 0x20 ADD PUSH32 0x1547E0C5EFE888CE946B013B8243B78A5F678EA941C867F5892706FF56E48164 DUP2 MSTORE PUSH1 0x20 ADD PUSH32 0x2AD530C497EA4713F4970A7F62956537CFC8588F07DDC027DD4FD0C6C10E5A43 DUP2 MSTORE PUSH1 0x20 ADD PUSH32 0x1056AB97CF05BCDB2105FBC0B84F38B0965027ABF7CA5361AC09F68ADEB56EED DUP2 MSTORE PUSH1 0x20 ADD PUSH32 0x226BEA5CECA4C99040EF2EBF3C5C51CFC588F331437889263F1A2B987D24FD84 DUP2 MSTORE PUSH1 0x20 ADD PUSH32 0xC52C9EC80C576338A26CDDE50A9E65E85B87472C7FA91E20E755826D904F62B DUP2 MSTORE PUSH1 0x20 ADD PUSH32 0x2AEBB7FFC8598C5238F2FDB7CB853B11EEF3B252D7EBE49F6EF75EC72E38EC4F DUP2 MSTORE PUSH1 0x20 ADD PUSH32 0x92D4B125F827C10993CFADBFC2596532D4065212DF9F63A767E853152CF1323 DUP2 MSTORE PUSH1 0x20 ADD PUSH32 0x1CC142514CCFCE20877D91B82265542F585ACC7ABD05BB4CCBBA837ABCED761A DUP2 MSTORE PUSH1 0x20 ADD PUSH32 0x6184DA392A17823E9C1D38CB50980B17150FFA411965B03F0B0200D9557DAA9 DUP2 MSTORE PUSH1 0x20 ADD PUSH32 0x2DE1F83BA2BF5EF20A63881B4AF4FB1149CC71D27A9D3F7471D3BAB13401D72E DUP2 MSTORE PUSH1 0x20 ADD PUSH32 0x294B01E9BEF3CBEEC553D6E01AE9C7E9F0DA12A81D5F874FA8820850B29446EF DUP2 MSTORE PUSH1 0x20 ADD PUSH32 0x1F5B4E9C9F3998AC1115C24CFF5D56475B73FE0600BEC2656ACCB54C6858DB10 DUP2 MSTORE PUSH1 0x20 ADD PUSH32 0x15ED766F45161E8CF3F750978EA18828B8CDF8211494307002AAC2BB81944642 DUP2 MSTORE PUSH1 0x20 ADD PUSH32 0x1D98DCEE4AD7E854AB175C4C9D2596DB3FF4D366F2B4768245F1B191C9ABD2DC DUP2 MSTORE PUSH1 0x20 ADD PUSH32 0xEEA43C2E39C9465CFC56A2B80F746B1FF0389129E0EEDF33600020246D66E12 DUP2 MSTORE PUSH1 0x20 ADD PUSH32 0x267076B8C3D79269CB83185BD7758F05FB0029C23E2F429AC2A16CC7B449A179 DUP2 MSTORE PUSH1 0x20 ADD PUSH32 0x1930694C542B3F428CA02285F978B47ECF06DE207DC299736C06766D7F2E17E6 DUP2 MSTORE PUSH1 0x20 ADD PUSH32 0x23F14882A28CC7BA2B752C5EB037C0606451D81FC6A58B4C647E7FCA3C3E941C DUP2 MSTORE PUSH1 0x20 ADD PUSH32 0x81EE42BC135A4E8E89208103BDF883A591CAB8BABACFCF201789F78BF9BCB31 DUP2 MSTORE POP SWAP1 POP PUSH2 0xB0D DUP3 PUSH1 0x0 ADD PUSH1 0x0 SWAP1 SLOAD SWAP1 PUSH2 0x100 EXP SWAP1 DIV PUSH1 0xFF AND PUSH2 0x1332 JUMP JUMPDEST PUSH8 0xFFFFFFFFFFFFFFFF DUP2 GT ISZERO PUSH2 0xB26 JUMPI PUSH2 0xB25 PUSH2 0x16F9 JUMP JUMPDEST JUMPDEST PUSH1 0x40 MLOAD SWAP1 DUP1 DUP3 MSTORE DUP1 PUSH1 0x20 MUL PUSH1 0x20 ADD DUP3 ADD PUSH1 0x40 MSTORE DUP1 ISZERO PUSH2 0xB54 JUMPI DUP2 PUSH1 0x20 ADD PUSH1 0x20 DUP3 MUL DUP1 CALLDATASIZE DUP4 CALLDATACOPY DUP1 DUP3 ADD SWAP2 POP POP SWAP1 POP JUMPDEST POP DUP3 PUSH1 0x1 ADD SWAP1 DUP1 MLOAD SWAP1 PUSH1 0x20 ADD SWAP1 PUSH2 0xB6C SWAP3 SWAP2 SWAP1 PUSH2 0x13F5 JUMP JUMPDEST POP PUSH2 0xB87 DUP3 PUSH1 0x0 ADD PUSH1 0x0 SWAP1 SLOAD SWAP1 PUSH2 0x100 EXP SWAP1 DIV PUSH1 0xFF AND PUSH2 0x1332 JUMP JUMPDEST PUSH8 0xFFFFFFFFFFFFFFFF DUP2 GT ISZERO PUSH2 0xBA0 JUMPI PUSH2 0xB9F PUSH2 0x16F9 JUMP JUMPDEST JUMPDEST PUSH1 0x40 MLOAD SWAP1 DUP1 DUP3 MSTORE DUP1 PUSH1 0x20 MUL PUSH1 0x20 ADD DUP3 ADD PUSH1 0x40 MSTORE DUP1 ISZERO PUSH2 0xBCE JUMPI DUP2 PUSH1 0x20 ADD PUSH1 0x20 DUP3 MUL DUP1 CALLDATASIZE DUP4 CALLDATACOPY DUP1 DUP3 ADD SWAP2 POP POP SWAP1 POP JUMPDEST POP DUP3 PUSH1 0x3 ADD SWAP1 DUP1 MLOAD SWAP1 PUSH1 0x20 ADD SWAP1 PUSH2 0xBE6 SWAP3 SWAP2 SWAP1 PUSH2 0x13F5 JUMP JUMPDEST POP PUSH2 0xC01 DUP3 PUSH1 0x0 ADD PUSH1 0x0 SWAP1 SLOAD SWAP1 PUSH2 0x100 EXP SWAP1 DIV PUSH1 0xFF AND PUSH2 0x1332 JUMP JUMPDEST PUSH8 0xFFFFFFFFFFFFFFFF DUP2 GT ISZERO PUSH2 0xC1A JUMPI PUSH2 0xC19 PUSH2 0x16F9 JUMP JUMPDEST JUMPDEST PUSH1 0x40 MLOAD SWAP1 DUP1 DUP3 MSTORE DUP1 PUSH1 0x20 MUL PUSH1 0x20 ADD DUP3 ADD PUSH1 0x40 MSTORE DUP1 ISZERO PUSH2 0xC48 JUMPI DUP2 PUSH1 0x20 ADD PUSH1 0x20 DUP3 MUL DUP1 CALLDATASIZE DUP4 CALLDATACOPY DUP1 DUP3 ADD SWAP2 POP POP SWAP1 POP JUMPDEST POP DUP3 PUSH1 0x2 ADD SWAP1 DUP1 MLOAD SWAP1 PUSH1 0x20 ADD SWAP1 PUSH2 0xC60 SWAP3 SWAP2 SWAP1 PUSH2 0x13F5 JUMP JUMPDEST POP PUSH2 0xC7B DUP3 PUSH1 0x0 ADD PUSH1 0x0 SWAP1 SLOAD SWAP1 PUSH2 0x100 EXP SWAP1 DIV PUSH1 0xFF AND PUSH2 0x1332 JUMP JUMPDEST PUSH8 0xFFFFFFFFFFFFFFFF DUP2 GT ISZERO PUSH2 0xC94 JUMPI PUSH2 0xC93 PUSH2 0x16F9 JUMP JUMPDEST JUMPDEST PUSH1 0x40 MLOAD SWAP1 DUP1 DUP3 MSTORE DUP1 PUSH1 0x20 MUL PUSH1 0x20 ADD DUP3 ADD PUSH1 0x40 MSTORE DUP1 ISZERO PUSH2 0xCC2 JUMPI DUP2 PUSH1 0x20 ADD PUSH1 0x20 DUP3 MUL DUP1 CALLDATASIZE DUP4 CALLDATACOPY DUP1 DUP3 ADD SWAP2 POP POP SWAP1 POP JUMPDEST POP DUP3 PUSH1 0x4 ADD SWAP1 DUP1 MLOAD SWAP1 PUSH1 0x20 ADD SWAP1 PUSH2 0xCDA SWAP3 SWAP2 SWAP1 PUSH2 0x13F5 JUMP JUMPDEST POP PUSH1 0x0 JUMPDEST PUSH2 0xCF8 DUP4 PUSH1 0x0 ADD PUSH1 0x0 SWAP1 SLOAD SWAP1 PUSH2 0x100 EXP SWAP1 DIV PUSH1 0xFF AND PUSH2 0x1332 JUMP JUMPDEST DUP2 LT ISZERO PUSH2 0xD6E JUMPI PUSH1 0x0 DUP4 PUSH1 0x1 ADD DUP3 DUP2 SLOAD DUP2 LT PUSH2 0xD17 JUMPI PUSH2 0xD16 PUSH2 0x1B37 JUMP JUMPDEST JUMPDEST SWAP1 PUSH1 0x0 MSTORE PUSH1 0x20 PUSH1 0x0 KECCAK256 ADD DUP2 SWAP1 SSTORE POP DUP2 DUP2 PUSH1 0x34 DUP2 LT PUSH2 0xD38 JUMPI PUSH2 0xD37 PUSH2 0x1B37 JUMP JUMPDEST JUMPDEST PUSH1 0x20 MUL ADD MLOAD DUP4 PUSH1 0x2 ADD DUP3 DUP2 SLOAD DUP2 LT PUSH2 0xD53 JUMPI PUSH2 0xD52 PUSH2 0x1B37 JUMP JUMPDEST JUMPDEST SWAP1 PUSH1 0x0 MSTORE PUSH1 0x20 PUSH1 0x0 KECCAK256 ADD DUP2 SWAP1 SSTORE POP DUP1 DUP1 PUSH1 0x1 ADD SWAP2 POP POP PUSH2 0xCDE JUMP JUMPDEST POP PUSH1 0x40 MLOAD DUP1 PUSH1 0x20 ADD PUSH1 0x40 MSTORE DUP1 PUSH2 0xD94 DUP5 PUSH1 0x0 ADD PUSH1 0x0 SWAP1 SLOAD SWAP1 PUSH2 0x100 EXP SWAP1 DIV PUSH1 0xFF AND PUSH2 0x1332 JUMP JUMPDEST PUSH1 0x34 PUSH2 0xDA0 SWAP2 SWAP1 PUSH2 0x1B95 JUMP JUMPDEST PUSH7 0xFFFFFFFFFFFFF SWAP1 SHR DUP2 MSTORE POP DUP3 PUSH1 0x5 ADD PUSH1 0x0 DUP3 ADD MLOAD DUP2 PUSH1 0x0 ADD SSTORE SWAP1 POP POP PUSH1 0x40 MLOAD DUP1 PUSH1 0x20 ADD PUSH1 0x40 MSTORE DUP1 PUSH2 0xDE3 DUP5 PUSH1 0x0 ADD PUSH1 0x0 SWAP1 SLOAD SWAP1 PUSH2 0x100 EXP SWAP1 DIV PUSH1 0xFF AND PUSH2 0x1332 JUMP JUMPDEST PUSH1 0x34 PUSH2 0xDEF SWAP2 SWAP1 PUSH2 0x1B95 JUMP JUMPDEST PUSH7 0xAED8C0AF2428A SWAP1 SHR DUP2 MSTORE POP DUP3 PUSH1 0x6 ADD PUSH1 0x0 DUP3 ADD MLOAD DUP2 PUSH1 0x0 ADD SSTORE SWAP1 POP POP POP POP JUMP JUMPDEST PUSH1 0x60 DUP6 DUP1 PUSH1 0x20 ADD MLOAD MLOAD PUSH2 0xE27 DUP3 PUSH1 0x0 ADD MLOAD PUSH2 0x1332 JUMP JUMPDEST EQ PUSH2 0xE67 JUMPI PUSH1 0x40 MLOAD PUSH32 0x8C379A000000000000000000000000000000000000000000000000000000000 DUP2 MSTORE PUSH1 0x4 ADD PUSH2 0xE5E SWAP1 PUSH2 0x1C26 JUMP JUMPDEST PUSH1 0x40 MLOAD DUP1 SWAP2 SUB SWAP1 REVERT JUMPDEST DUP1 PUSH1 0x20 ADD MLOAD MLOAD PUSH2 0xE7A DUP3 PUSH1 0x0 ADD MLOAD PUSH2 0x1332 JUMP JUMPDEST EQ PUSH2 0xEBA JUMPI PUSH1 0x40 MLOAD PUSH32 0x8C379A000000000000000000000000000000000000000000000000000000000 DUP2 MSTORE PUSH1 0x4 ADD PUSH2 0xEB1 SWAP1 PUSH2 0x1C26 JUMP JUMPDEST PUSH1 0x40 MLOAD DUP1 SWAP2 SUB SWAP1 REVERT JUMPDEST DUP6 DUP1 PUSH1 0x20 ADD MLOAD MLOAD PUSH2 0xECE DUP3 PUSH1 0x0 ADD MLOAD PUSH2 0x1332 JUMP JUMPDEST EQ PUSH2 0xF0E JUMPI PUSH1 0x40 MLOAD PUSH32 0x8C379A000000000000000000000000000000000000000000000000000000000 DUP2 MSTORE PUSH1 0x4 ADD PUSH2 0xF05 SWAP1 PUSH2 0x1C26 JUMP JUMPDEST PUSH1 0x40 MLOAD DUP1 SWAP2 SUB SWAP1 REVERT JUMPDEST DUP1 PUSH1 0x20 ADD MLOAD MLOAD PUSH2 0xF21 DUP3 PUSH1 0x0 ADD MLOAD PUSH2 0x1332 JUMP JUMPDEST EQ PUSH2 0xF61 JUMPI PUSH1 0x40 MLOAD PUSH32 0x8C379A000000000000000000000000000000000000000000000000000000000 DUP2 MSTORE PUSH1 0x4 ADD PUSH2 0xF58 SWAP1 PUSH2 0x1C26 JUMP JUMPDEST PUSH1 0x40 MLOAD DUP1 SWAP2 SUB SWAP1 REVERT JUMPDEST DUP7 PUSH1 0x0 ADD MLOAD PUSH1 0x2 DUP2 GT ISZERO PUSH2 0xF78 JUMPI PUSH2 0xF77 PUSH2 0x14E9 JUMP JUMPDEST JUMPDEST DUP9 PUSH1 0x0 ADD MLOAD PUSH1 0x2 DUP2 GT ISZERO PUSH2 0xF8F JUMPI PUSH2 0xF8E PUSH2 0x14E9 JUMP JUMPDEST JUMPDEST EQ PUSH2 0xFCF JUMPI PUSH1 0x40 MLOAD PUSH32 0x8C379A000000000000000000000000000000000000000000000000000000000 DUP2 MSTORE PUSH1 0x4 ADD PUSH2 0xFC6 SWAP1 PUSH2 0x1C92 JUMP JUMPDEST PUSH1 0x40 MLOAD DUP1 SWAP2 SUB SWAP1 REVERT JUMPDEST PUSH1 0x0 PUSH2 0xFDE DUP10 PUSH1 0x0 ADD MLOAD PUSH2 0x1332 JUMP JUMPDEST SWAP1 POP PUSH1 0x0 PUSH1 0x4 DUP3 PUSH2 0xFEF SWAP2 SWAP1 PUSH2 0x1CB2 JUMP JUMPDEST PUSH1 0x7 PUSH2 0xFFB SWAP2 SWAP1 PUSH2 0x1CF4 JUMP JUMPDEST PUSH8 0xFFFFFFFFFFFFFFFF DUP2 GT ISZERO PUSH2 0x1014 JUMPI PUSH2 0x1013 PUSH2 0x16F9 JUMP JUMPDEST JUMPDEST PUSH1 0x40 MLOAD SWAP1 DUP1 DUP3 MSTORE DUP1 PUSH1 0x20 MUL PUSH1 0x20 ADD DUP3 ADD PUSH1 0x40 MSTORE DUP1 ISZERO PUSH2 0x1042 JUMPI DUP2 PUSH1 0x20 ADD PUSH1 0x20 DUP3 MUL DUP1 CALLDATASIZE DUP4 CALLDATACOPY DUP1 DUP3 ADD SWAP2 POP POP SWAP1 POP JUMPDEST POP SWAP1 POP DUP8 DUP2 PUSH1 0x0 DUP2 MLOAD DUP2 LT PUSH2 0x105A JUMPI PUSH2 0x1059 PUSH2 0x1B37 JUMP JUMPDEST JUMPDEST PUSH1 0x20 MUL PUSH1 0x20 ADD ADD DUP2 DUP2 MSTORE POP POP DUP7 DUP2 PUSH1 0x1 DUP2 MLOAD DUP2 LT PUSH2 0x107B JUMPI PUSH2 0x107A PUSH2 0x1B37 JUMP JUMPDEST JUMPDEST PUSH1 0x20 MUL PUSH1 0x20 ADD ADD DUP2 DUP2 MSTORE POP POP DUP6 DUP2 PUSH1 0x2 DUP2 MLOAD DUP2 LT PUSH2 0x109C JUMPI PUSH2 0x109B PUSH2 0x1B37 JUMP JUMPDEST JUMPDEST PUSH1 0x20 MUL PUSH1 0x20 ADD ADD DUP2 DUP2 MSTORE POP POP PUSH1 0x0 JUMPDEST DUP3 DUP2 LT ISZERO PUSH2 0x1221 JUMPI DUP10 PUSH1 0x20 ADD MLOAD DUP2 DUP2 MLOAD DUP2 LT PUSH2 0x10CA JUMPI PUSH2 0x10C9 PUSH2 0x1B37 JUMP JUMPDEST JUMPDEST PUSH1 0x20 MUL PUSH1 0x20 ADD ADD MLOAD DUP3 PUSH1 0x3 DUP4 PUSH2 0x10E0 SWAP2 SWAP1 PUSH2 0x1CF4 JUMP JUMPDEST DUP2 MLOAD DUP2 LT PUSH2 0x10F1 JUMPI PUSH2 0x10F0 PUSH2 0x1B37 JUMP JUMPDEST JUMPDEST PUSH1 0x20 MUL PUSH1 0x20 ADD ADD DUP2 DUP2 MSTORE POP POP DUP10 PUSH1 0x40 ADD MLOAD DUP2 DUP2 MLOAD DUP2 LT PUSH2 0x1114 JUMPI PUSH2 0x1113 PUSH2 0x1B37 JUMP JUMPDEST JUMPDEST PUSH1 0x20 MUL PUSH1 0x20 ADD ADD MLOAD DUP3 DUP5 PUSH1 0x3 DUP5 PUSH2 0x112B SWAP2 SWAP1 PUSH2 0x1CF4 JUMP JUMPDEST PUSH2 0x1135 SWAP2 SWAP1 PUSH2 0x1CF4 JUMP JUMPDEST DUP2 MLOAD DUP2 LT PUSH2 0x1146 JUMPI PUSH2 0x1145 PUSH2 0x1B37 JUMP JUMPDEST JUMPDEST PUSH1 0x20 MUL PUSH1 0x20 ADD ADD DUP2 DUP2 MSTORE POP POP DUP11 PUSH1 0x20 ADD MLOAD DUP2 DUP2 MLOAD DUP2 LT PUSH2 0x1169 JUMPI PUSH2 0x1168 PUSH2 0x1B37 JUMP JUMPDEST JUMPDEST PUSH1 0x20 MUL PUSH1 0x20 ADD ADD MLOAD DUP3 PUSH1 0x2 DUP6 PUSH2 0x117F SWAP2 SWAP1 PUSH2 0x1CB2 JUMP JUMPDEST PUSH1 0x3 DUP5 PUSH2 0x118C SWAP2 SWAP1 PUSH2 0x1CF4 JUMP JUMPDEST PUSH2 0x1196 SWAP2 SWAP1 PUSH2 0x1CF4 JUMP JUMPDEST DUP2 MLOAD DUP2 LT PUSH2 0x11A7 JUMPI PUSH2 0x11A6 PUSH2 0x1B37 JUMP JUMPDEST JUMPDEST PUSH1 0x20 MUL PUSH1 0x20 ADD ADD DUP2 DUP2 MSTORE POP POP DUP11 PUSH1 0x40 ADD MLOAD DUP2 DUP2 MLOAD DUP2 LT PUSH2 0x11CA JUMPI PUSH2 0x11C9 PUSH2 0x1B37 JUMP JUMPDEST JUMPDEST PUSH1 0x20 MUL PUSH1 0x20 ADD ADD MLOAD DUP3 PUSH1 0x3 DUP6 PUSH2 0x11E0 SWAP2 SWAP1 PUSH2 0x1CB2 JUMP JUMPDEST PUSH1 0x3 DUP5 PUSH2 0x11ED SWAP2 SWAP1 PUSH2 0x1CF4 JUMP JUMPDEST PUSH2 0x11F7 SWAP2 SWAP1 PUSH2 0x1CF4 JUMP JUMPDEST DUP2 MLOAD DUP2 LT PUSH2 0x1208 JUMPI PUSH2 0x1207 PUSH2 0x1B37 JUMP JUMPDEST JUMPDEST PUSH1 0x20 MUL PUSH1 0x20 ADD ADD DUP2 DUP2 MSTORE POP POP DUP1 DUP1 PUSH1 0x1 ADD SWAP2 POP POP PUSH2 0x10AB JUMP JUMPDEST POP DUP9 PUSH1 0x60 ADD MLOAD PUSH1 0x0 ADD MLOAD DUP2 DUP4 PUSH1 0x4 PUSH2 0x1239 SWAP2 SWAP1 PUSH2 0x1CB2 JUMP JUMPDEST PUSH1 0x3 PUSH2 0x1245 SWAP2 SWAP1 PUSH2 0x1CF4 JUMP JUMPDEST DUP2 MLOAD DUP2 LT PUSH2 0x1256 JUMPI PUSH2 0x1255 PUSH2 0x1B37 JUMP JUMPDEST JUMPDEST PUSH1 0x20 MUL PUSH1 0x20 ADD ADD DUP2 DUP2 MSTORE POP POP DUP9 PUSH1 0x80 ADD MLOAD PUSH1 0x0 ADD MLOAD DUP2 DUP4 PUSH1 0x4 PUSH2 0x1279 SWAP2 SWAP1 PUSH2 0x1CB2 JUMP JUMPDEST PUSH1 0x4 PUSH2 0x1285 SWAP2 SWAP1 PUSH2 0x1CF4 JUMP JUMPDEST DUP2 MLOAD DUP2 LT PUSH2 0x1296 JUMPI PUSH2 0x1295 PUSH2 0x1B37 JUMP JUMPDEST JUMPDEST PUSH1 0x20 MUL PUSH1 0x20 ADD ADD DUP2 DUP2 MSTORE POP POP DUP10 PUSH1 0x60 ADD MLOAD PUSH1 0x0 ADD MLOAD DUP2 DUP4 PUSH1 0x4 PUSH2 0x12B9 SWAP2 SWAP1 PUSH2 0x1CB2 JUMP JUMPDEST PUSH1 0x5 PUSH2 0x12C5 SWAP2 SWAP1 PUSH2 0x1CF4 JUMP JUMPDEST DUP2 MLOAD DUP2 LT PUSH2 0x12D6 JUMPI PUSH2 0x12D5 PUSH2 0x1B37 JUMP JUMPDEST JUMPDEST PUSH1 0x20 MUL PUSH1 0x20 ADD ADD DUP2 DUP2 MSTORE POP POP DUP10 PUSH1 0x80 ADD MLOAD PUSH1 0x0 ADD MLOAD DUP2 DUP4 PUSH1 0x4 PUSH2 0x12F9 SWAP2 SWAP1 PUSH2 0x1CB2 JUMP JUMPDEST PUSH1 0x6 PUSH2 0x1305 SWAP2 SWAP1 PUSH2 0x1CF4 JUMP JUMPDEST DUP2 MLOAD DUP2 LT PUSH2 0x1316 JUMPI PUSH2 0x1315 PUSH2 0x1B37 JUMP JUMPDEST JUMPDEST PUSH1 0x20 MUL PUSH1 0x20 ADD ADD DUP2 DUP2 MSTORE POP POP DUP1 SWAP5 POP POP POP POP POP SWAP6 SWAP5 POP POP POP POP POP JUMP JUMPDEST PUSH1 0x0 DUP1 PUSH1 0x2 DUP2 GT ISZERO PUSH2 0x1347 JUMPI PUSH2 0x1346 PUSH2 0x14E9 JUMP JUMPDEST JUMPDEST DUP3 PUSH1 0x2 DUP2 GT ISZERO PUSH2 0x135A JUMPI PUSH2 0x1359 PUSH2 0x14E9 JUMP JUMPDEST JUMPDEST SUB PUSH2 0x1368 JUMPI PUSH1 0x5 SWAP1 POP PUSH2 0x13A3 JUMP JUMPDEST PUSH1 0x1 PUSH1 0x2 DUP2 GT ISZERO PUSH2 0x137C JUMPI PUSH2 0x137B PUSH2 0x14E9 JUMP JUMPDEST JUMPDEST DUP3 PUSH1 0x2 DUP2 GT ISZERO PUSH2 0x138F JUMPI PUSH2 0x138E PUSH2 0x14E9 JUMP JUMPDEST JUMPDEST SUB PUSH2 0x139D JUMPI PUSH1 0x1E SWAP1 POP PUSH2 0x13A2 JUMP JUMPDEST PUSH1 0x34 SWAP1 POP JUMPDEST JUMPDEST SWAP2 SWAP1 POP JUMP JUMPDEST PUSH1 0x40 MLOAD DUP1 PUSH1 0xA0 ADD PUSH1 0x40 MSTORE DUP1 PUSH1 0x0 PUSH1 0x2 DUP2 GT ISZERO PUSH2 0x13C7 JUMPI PUSH2 0x13C6 PUSH2 0x14E9 JUMP JUMPDEST JUMPDEST DUP2 MSTORE PUSH1 0x20 ADD PUSH1 0x60 DUP2 MSTORE PUSH1 0x20 ADD PUSH1 0x60 DUP2 MSTORE PUSH1 0x20 ADD PUSH2 0x13E2 PUSH2 0x1442 JUMP JUMPDEST DUP2 MSTORE PUSH1 0x20 ADD PUSH2 0x13EF PUSH2 0x1442 JUMP JUMPDEST DUP2 MSTORE POP SWAP1 JUMP JUMPDEST DUP3 DUP1 SLOAD DUP3 DUP3 SSTORE SWAP1 PUSH1 0x0 MSTORE PUSH1 0x20 PUSH1 0x0 KECCAK256 SWAP1 DUP2 ADD SWAP3 DUP3 ISZERO PUSH2 0x1431 JUMPI SWAP2 PUSH1 0x20 MUL DUP3 ADD JUMPDEST DUP3 DUP2 GT ISZERO PUSH2 0x1430 JUMPI DUP3 MLOAD DUP3 SSTORE SWAP2 PUSH1 0x20 ADD SWAP2 SWAP1 PUSH1 0x1 ADD SWAP1 PUSH2 0x1415 JUMP JUMPDEST JUMPDEST POP SWAP1 POP PUSH2 0x143E SWAP2 SWAP1 PUSH2 0x1455 JUMP JUMPDEST POP SWAP1 JUMP JUMPDEST PUSH1 0x40 MLOAD DUP1 PUSH1 0x20 ADD PUSH1 0x40 MSTORE DUP1 PUSH1 0x0 DUP2 MSTORE POP SWAP1 JUMP JUMPDEST JUMPDEST DUP1 DUP3 GT ISZERO PUSH2 0x146E JUMPI PUSH1 0x0 DUP2 PUSH1 0x0 SWAP1 SSTORE POP PUSH1 0x1 ADD PUSH2 0x1456 JUMP JUMPDEST POP SWAP1 JUMP JUMPDEST PUSH1 0x0 PUSH1 0x40 MLOAD SWAP1 POP SWAP1 JUMP JUMPDEST PUSH1 0x0 DUP1 REVERT JUMPDEST PUSH1 0x0 DUP1 REVERT JUMPDEST PUSH1 0x0 DUP2 SWAP1 POP SWAP2 SWAP1 POP JUMP JUMPDEST PUSH2 0x1499 DUP2 PUSH2 0x1486 JUMP JUMPDEST DUP2 EQ PUSH2 0x14A4 JUMPI PUSH1 0x0 DUP1 REVERT JUMPDEST POP JUMP JUMPDEST PUSH1 0x0 DUP2 CALLDATALOAD SWAP1 POP PUSH2 0x14B6 DUP2 PUSH2 0x1490 JUMP JUMPDEST SWAP3 SWAP2 POP POP JUMP JUMPDEST PUSH1 0x0 PUSH1 0x20 DUP3 DUP5 SUB SLT ISZERO PUSH2 0x14D2 JUMPI PUSH2 0x14D1 PUSH2 0x147C JUMP JUMPDEST JUMPDEST PUSH1 0x0 PUSH2 0x14E0 DUP5 DUP3 DUP6 ADD PUSH2 0x14A7 JUMP JUMPDEST SWAP2 POP POP SWAP3 SWAP2 POP POP JUMP JUMPDEST PUSH32 0x4E487B7100000000000000000000000000000000000000000000000000000000 PUSH1 0x0 MSTORE PUSH1 0x21 PUSH1 0x4 MSTORE PUSH1 0x24 PUSH1 0x0 REVERT JUMPDEST PUSH1 0x3 DUP2 LT PUSH2 0x1529 JUMPI PUSH2 0x1528 PUSH2 0x14E9 JUMP JUMPDEST JUMPDEST POP JUMP JUMPDEST PUSH1 0x0 DUP2 SWAP1 POP PUSH2 0x153A DUP3 PUSH2 0x1518 JUMP JUMPDEST SWAP2 SWAP1 POP JUMP JUMPDEST PUSH1 0x0 PUSH2 0x154A DUP3 PUSH2 0x152C JUMP JUMPDEST SWAP1 POP SWAP2 SWAP1 POP JUMP JUMPDEST PUSH2 0x155A DUP2 PUSH2 0x153F JUMP JUMPDEST DUP3 MSTORE POP POP JUMP JUMPDEST PUSH1 0x0 DUP2 MLOAD SWAP1 POP SWAP2 SWAP1 POP JUMP JUMPDEST PUSH1 0x0 DUP3 DUP3 MSTORE PUSH1 0x20 DUP3 ADD SWAP1 POP SWAP3 SWAP2 POP POP JUMP JUMPDEST PUSH1 0x0 DUP2 SWAP1 POP PUSH1 0x20 DUP3 ADD SWAP1 POP SWAP2 SWAP1 POP JUMP JUMPDEST PUSH1 0x0 DUP2 SWAP1 POP SWAP2 SWAP1 POP JUMP JUMPDEST PUSH2 0x159F DUP2 PUSH2 0x158C JUMP JUMPDEST DUP3 MSTORE POP POP JUMP JUMPDEST PUSH1 0x0 PUSH2 0x15B1 DUP4 DUP4 PUSH2 0x1596 JUMP JUMPDEST PUSH1 0x20 DUP4 ADD SWAP1 POP SWAP3 SWAP2 POP POP JUMP JUMPDEST PUSH1 0x0 PUSH1 0x20 DUP3 ADD SWAP1 POP SWAP2 SWAP1 POP JUMP JUMPDEST PUSH1 0x0 PUSH2 0x15D5 DUP3 PUSH2 0x1560 JUMP JUMPDEST PUSH2 0x15DF DUP2 DUP6 PUSH2 0x156B JUMP JUMPDEST SWAP4 POP PUSH2 0x15EA DUP4 PUSH2 0x157C JUMP JUMPDEST DUP1 PUSH1 0x0 JUMPDEST DUP4 DUP2 LT ISZERO PUSH2 0x161B JUMPI DUP2 MLOAD PUSH2 0x1602 DUP9 DUP3 PUSH2 0x15A5 JUMP JUMPDEST SWAP8 POP PUSH2 0x160D DUP4 PUSH2 0x15BD JUMP JUMPDEST SWAP3 POP POP PUSH1 0x1 DUP2 ADD SWAP1 POP PUSH2 0x15EE JUMP JUMPDEST POP DUP6 SWAP4 POP POP POP POP SWAP3 SWAP2 POP POP JUMP JUMPDEST PUSH1 0x20 DUP3 ADD PUSH1 0x0 DUP3 ADD MLOAD PUSH2 0x163E PUSH1 0x0 DUP6 ADD DUP3 PUSH2 0x1596 JUMP JUMPDEST POP POP POP POP JUMP JUMPDEST PUSH1 0x0 PUSH1 0xA0 DUP4 ADD PUSH1 0x0 DUP4 ADD MLOAD PUSH2 0x165C PUSH1 0x0 DUP7 ADD DUP3 PUSH2 0x1551 JUMP JUMPDEST POP PUSH1 0x20 DUP4 ADD MLOAD DUP5 DUP3 SUB PUSH1 0x20 DUP7 ADD MSTORE PUSH2 0x1674 DUP3 DUP3 PUSH2 0x15CA JUMP JUMPDEST SWAP2 POP POP PUSH1 0x40 DUP4 ADD MLOAD DUP5 DUP3 SUB PUSH1 0x40 DUP7 ADD MSTORE PUSH2 0x168E DUP3 DUP3 PUSH2 0x15CA JUMP JUMPDEST SWAP2 POP POP PUSH1 0x60 DUP4 ADD MLOAD PUSH2 0x16A3 PUSH1 0x60 DUP7 ADD DUP3 PUSH2 0x1628 JUMP JUMPDEST POP PUSH1 0x80 DUP4 ADD MLOAD PUSH2 0x16B6 PUSH1 0x80 DUP7 ADD DUP3 PUSH2 0x1628 JUMP JUMPDEST POP DUP1 SWAP2 POP POP SWAP3 SWAP2 POP POP JUMP JUMPDEST PUSH1 0x0 PUSH1 0x20 DUP3 ADD SWAP1 POP DUP2 DUP2 SUB PUSH1 0x0 DUP4 ADD MSTORE PUSH2 0x16DB DUP2 DUP5 PUSH2 0x1644 JUMP JUMPDEST SWAP1 POP SWAP3 SWAP2 POP POP JUMP JUMPDEST PUSH1 0x0 DUP1 REVERT JUMPDEST PUSH1 0x0 PUSH1 0x1F NOT PUSH1 0x1F DUP4 ADD AND SWAP1 POP SWAP2 SWAP1 POP JUMP JUMPDEST PUSH32 0x4E487B7100000000000000000000000000000000000000000000000000000000 PUSH1 0x0 MSTORE PUSH1 0x41 PUSH1 0x4 MSTORE PUSH1 0x24 PUSH1 0x0 REVERT JUMPDEST PUSH2 0x1731 DUP3 PUSH2 0x16E8 JUMP JUMPDEST DUP2 ADD DUP2 DUP2 LT PUSH8 0xFFFFFFFFFFFFFFFF DUP3 GT OR ISZERO PUSH2 0x1750 JUMPI PUSH2 0x174F PUSH2 0x16F9 JUMP JUMPDEST JUMPDEST DUP1 PUSH1 0x40 MSTORE POP POP POP JUMP JUMPDEST PUSH1 0x0 PUSH2 0x1763 PUSH2 0x1472 JUMP JUMPDEST SWAP1 POP PUSH2 0x176F DUP3 DUP3 PUSH2 0x1728 JUMP JUMPDEST SWAP2 SWAP1 POP JUMP JUMPDEST PUSH1 0x0 DUP1 REVERT JUMPDEST PUSH1 0x3 DUP2 LT PUSH2 0x1786 JUMPI PUSH1 0x0 DUP1 REVERT JUMPDEST POP JUMP JUMPDEST PUSH1 0x0 DUP2 CALLDATALOAD SWAP1 POP PUSH2 0x1798 DUP2 PUSH2 0x1779 JUMP JUMPDEST SWAP3 SWAP2 POP POP JUMP JUMPDEST PUSH1 0x0 DUP1 REVERT JUMPDEST PUSH1 0x0 PUSH8 0xFFFFFFFFFFFFFFFF DUP3 GT ISZERO PUSH2 0x17BE JUMPI PUSH2 0x17BD PUSH2 0x16F9 JUMP JUMPDEST JUMPDEST PUSH1 0x20 DUP3 MUL SWAP1 POP PUSH1 0x20 DUP2 ADD SWAP1 POP SWAP2 SWAP1 POP JUMP JUMPDEST PUSH1 0x0 DUP1 REVERT JUMPDEST PUSH2 0x17DD DUP2 PUSH2 0x158C JUMP JUMPDEST DUP2 EQ PUSH2 0x17E8 JUMPI PUSH1 0x0 DUP1 REVERT JUMPDEST POP JUMP JUMPDEST PUSH1 0x0 DUP2 CALLDATALOAD SWAP1 POP PUSH2 0x17FA DUP2 PUSH2 0x17D4 JUMP JUMPDEST SWAP3 SWAP2 POP POP JUMP JUMPDEST PUSH1 0x0 PUSH2 0x1813 PUSH2 0x180E DUP5 PUSH2 0x17A3 JUMP JUMPDEST PUSH2 0x1759 JUMP JUMPDEST SWAP1 POP DUP1 DUP4 DUP3 MSTORE PUSH1 0x20 DUP3 ADD SWAP1 POP PUSH1 0x20 DUP5 MUL DUP4 ADD DUP6 DUP2 GT ISZERO PUSH2 0x1836 JUMPI PUSH2 0x1835 PUSH2 0x17CF JUMP JUMPDEST JUMPDEST DUP4 JUMPDEST DUP2 DUP2 LT ISZERO PUSH2 0x185F JUMPI DUP1 PUSH2 0x184B DUP9 DUP3 PUSH2 0x17EB JUMP JUMPDEST DUP5 MSTORE PUSH1 0x20 DUP5 ADD SWAP4 POP POP PUSH1 0x20 DUP2 ADD SWAP1 POP PUSH2 0x1838 JUMP JUMPDEST POP POP POP SWAP4 SWAP3 POP POP POP JUMP JUMPDEST PUSH1 0x0 DUP3 PUSH1 0x1F DUP4 ADD SLT PUSH2 0x187E JUMPI PUSH2 0x187D PUSH2 0x179E JUMP JUMPDEST JUMPDEST DUP2 CALLDATALOAD PUSH2 0x188E DUP5 DUP3 PUSH1 0x20 DUP7 ADD PUSH2 0x1800 JUMP JUMPDEST SWAP2 POP POP SWAP3 SWAP2 POP POP JUMP JUMPDEST PUSH1 0x0 PUSH1 0x20 DUP3 DUP5 SUB SLT ISZERO PUSH2 0x18AD JUMPI PUSH2 0x18AC PUSH2 0x16E3 JUMP JUMPDEST JUMPDEST PUSH2 0x18B7 PUSH1 0x20 PUSH2 0x1759 JUMP JUMPDEST SWAP1 POP PUSH1 0x0 PUSH2 0x18C7 DUP5 DUP3 DUP6 ADD PUSH2 0x17EB JUMP JUMPDEST PUSH1 0x0 DUP4 ADD MSTORE POP SWAP3 SWAP2 POP POP JUMP JUMPDEST PUSH1 0x0 PUSH1 0xA0 DUP3 DUP5 SUB SLT ISZERO PUSH2 0x18E9 JUMPI PUSH2 0x18E8 PUSH2 0x16E3 JUMP JUMPDEST JUMPDEST PUSH2 0x18F3 PUSH1 0xA0 PUSH2 0x1759 JUMP JUMPDEST SWAP1 POP PUSH1 0x0 PUSH2 0x1903 DUP5 DUP3 DUP6 ADD PUSH2 0x1789 JUMP JUMPDEST PUSH1 0x0 DUP4 ADD MSTORE POP PUSH1 0x20 DUP3 ADD CALLDATALOAD PUSH8 0xFFFFFFFFFFFFFFFF DUP2 GT ISZERO PUSH2 0x1927 JUMPI PUSH2 0x1926 PUSH2 0x1774 JUMP JUMPDEST JUMPDEST PUSH2 0x1933 DUP5 DUP3 DUP6 ADD PUSH2 0x1869 JUMP JUMPDEST PUSH1 0x20 DUP4 ADD MSTORE POP PUSH1 0x40 DUP3 ADD CALLDATALOAD PUSH8 0xFFFFFFFFFFFFFFFF DUP2 GT ISZERO PUSH2 0x1957 JUMPI PUSH2 0x1956 PUSH2 0x1774 JUMP JUMPDEST JUMPDEST PUSH2 0x1963 DUP5 DUP3 DUP6 ADD PUSH2 0x1869 JUMP JUMPDEST PUSH1 0x40 DUP4 ADD MSTORE POP PUSH1 0x60 PUSH2 0x1977 DUP5 DUP3 DUP6 ADD PUSH2 0x1897 JUMP JUMPDEST PUSH1 0x60 DUP4 ADD MSTORE POP PUSH1 0x80 PUSH2 0x198B DUP5 DUP3 DUP6 ADD PUSH2 0x1897 JUMP JUMPDEST PUSH1 0x80 DUP4 ADD MSTORE POP SWAP3 SWAP2 POP POP JUMP JUMPDEST PUSH1 0x0 DUP1 PUSH1 0x40 DUP4 DUP6 SUB SLT ISZERO PUSH2 0x19AE JUMPI PUSH2 0x19AD PUSH2 0x147C JUMP JUMPDEST JUMPDEST PUSH1 0x0 DUP4 ADD CALLDATALOAD PUSH8 0xFFFFFFFFFFFFFFFF DUP2 GT ISZERO PUSH2 0x19CC JUMPI PUSH2 0x19CB PUSH2 0x1481 JUMP JUMPDEST JUMPDEST PUSH2 0x19D8 DUP6 DUP3 DUP7 ADD PUSH2 0x18D3 JUMP JUMPDEST SWAP3 POP POP PUSH1 0x20 PUSH2 0x19E9 DUP6 DUP3 DUP7 ADD PUSH2 0x14A7 JUMP JUMPDEST SWAP2 POP POP SWAP3 POP SWAP3 SWAP1 POP JUMP JUMPDEST PUSH1 0x0 DUP1 PUSH1 0x0 DUP1 PUSH1 0x0 PUSH1 0xA0 DUP7 DUP9 SUB SLT ISZERO PUSH2 0x1A0F JUMPI PUSH2 0x1A0E PUSH2 0x147C JUMP JUMPDEST JUMPDEST PUSH1 0x0 DUP7 ADD CALLDATALOAD PUSH8 0xFFFFFFFFFFFFFFFF DUP2 GT ISZERO PUSH2 0x1A2D JUMPI PUSH2 0x1A2C PUSH2 0x1481 JUMP JUMPDEST JUMPDEST PUSH2 0x1A39 DUP9 DUP3 DUP10 ADD PUSH2 0x18D3 JUMP JUMPDEST SWAP6 POP POP PUSH1 0x20 DUP7 ADD CALLDATALOAD PUSH8 0xFFFFFFFFFFFFFFFF DUP2 GT ISZERO PUSH2 0x1A5A JUMPI PUSH2 0x1A59 PUSH2 0x1481 JUMP JUMPDEST JUMPDEST PUSH2 0x1A66 DUP9 DUP3 DUP10 ADD PUSH2 0x18D3 JUMP JUMPDEST SWAP5 POP POP PUSH1 0x40 PUSH2 0x1A77 DUP9 DUP3 DUP10 ADD PUSH2 0x17EB JUMP JUMPDEST SWAP4 POP POP PUSH1 0x60 PUSH2 0x1A88 DUP9 DUP3 DUP10 ADD PUSH2 0x17EB JUMP JUMPDEST SWAP3 POP POP PUSH1 0x80 PUSH2 0x1A99 DUP9 DUP3 DUP10 ADD PUSH2 0x17EB JUMP JUMPDEST SWAP2 POP POP SWAP3 SWAP6 POP SWAP3 SWAP6 SWAP1 SWAP4 POP JUMP JUMPDEST PUSH1 0x0 DUP3 DUP3 MSTORE PUSH1 0x20 DUP3 ADD SWAP1 POP SWAP3 SWAP2 POP POP JUMP JUMPDEST PUSH1 0x0 PUSH2 0x1AC2 DUP3 PUSH2 0x1560 JUMP JUMPDEST PUSH2 0x1ACC DUP2 DUP6 PUSH2 0x1AA6 JUMP JUMPDEST SWAP4 POP PUSH2 0x1AD7 DUP4 PUSH2 0x157C JUMP JUMPDEST DUP1 PUSH1 0x0 JUMPDEST DUP4 DUP2 LT ISZERO PUSH2 0x1B08 JUMPI DUP2 MLOAD PUSH2 0x1AEF DUP9 DUP3 PUSH2 0x15A5 JUMP JUMPDEST SWAP8 POP PUSH2 0x1AFA DUP4 PUSH2 0x15BD JUMP JUMPDEST SWAP3 POP POP PUSH1 0x1 DUP2 ADD SWAP1 POP PUSH2 0x1ADB JUMP JUMPDEST POP DUP6 SWAP4 POP POP POP POP SWAP3 SWAP2 POP POP JUMP JUMPDEST PUSH1 0x0 PUSH1 0x20 DUP3 ADD SWAP1 POP DUP2 DUP2 SUB PUSH1 0x0 DUP4 ADD MSTORE PUSH2 0x1B2F DUP2 DUP5 PUSH2 0x1AB7 JUMP JUMPDEST SWAP1 POP SWAP3 SWAP2 POP POP JUMP JUMPDEST PUSH32 0x4E487B7100000000000000000000000000000000000000000000000000000000 PUSH1 0x0 MSTORE PUSH1 0x32 PUSH1 0x4 MSTORE PUSH1 0x24 PUSH1 0x0 REVERT JUMPDEST PUSH32 0x4E487B7100000000000000000000000000000000000000000000000000000000 PUSH1 0x0 MSTORE PUSH1 0x11 PUSH1 0x4 MSTORE PUSH1 0x24 PUSH1 0x0 REVERT JUMPDEST PUSH1 0x0 PUSH2 0x1BA0 DUP3 PUSH2 0x158C JUMP JUMPDEST SWAP2 POP PUSH2 0x1BAB DUP4 PUSH2 0x158C JUMP JUMPDEST SWAP3 POP DUP3 DUP3 SUB SWAP1 POP DUP2 DUP2 GT ISZERO PUSH2 0x1BC3 JUMPI PUSH2 0x1BC2 PUSH2 0x1B66 JUMP JUMPDEST JUMPDEST SWAP3 SWAP2 POP POP JUMP JUMPDEST PUSH1 0x0 DUP3 DUP3 MSTORE PUSH1 0x20 DUP3 ADD SWAP1 POP SWAP3 SWAP2 POP POP JUMP JUMPDEST PUSH32 0x77726F6E67205830206C656E6774680000000000000000000000000000000000 PUSH1 0x0 DUP3 ADD MSTORE POP JUMP JUMPDEST PUSH1 0x0 PUSH2 0x1C10 PUSH1 0xF DUP4 PUSH2 0x1BC9 JUMP JUMPDEST SWAP2 POP PUSH2 0x1C1B DUP3 PUSH2 0x1BDA JUMP JUMPDEST PUSH1 0x20 DUP3 ADD SWAP1 POP SWAP2 SWAP1 POP JUMP JUMPDEST PUSH1 0x0 PUSH1 0x20 DUP3 ADD SWAP1 POP DUP2 DUP2 SUB PUSH1 0x0 DUP4 ADD MSTORE PUSH2 0x1C3F DUP2 PUSH2 0x1C03 JUMP JUMPDEST SWAP1 POP SWAP2 SWAP1 POP JUMP JUMPDEST PUSH32 0x4465636B20636F6E66696720696E636F6E73697374656E740000000000000000 PUSH1 0x0 DUP3 ADD MSTORE POP JUMP JUMPDEST PUSH1 0x0 PUSH2 0x1C7C PUSH1 0x18 DUP4 PUSH2 0x1BC9 JUMP JUMPDEST SWAP2 POP PUSH2 0x1C87 DUP3 PUSH2 0x1C46 JUMP JUMPDEST PUSH1 0x20 DUP3 ADD SWAP1 POP SWAP2 SWAP1 POP JUMP JUMPDEST PUSH1 0x0 PUSH1 0x20 DUP3 ADD SWAP1 POP DUP2 DUP2 SUB PUSH1 0x0 DUP4 ADD MSTORE PUSH2 0x1CAB DUP2 PUSH2 0x1C6F JUMP JUMPDEST SWAP1 POP SWAP2 SWAP1 POP JUMP JUMPDEST PUSH1 0x0 PUSH2 0x1CBD DUP3 PUSH2 0x158C JUMP JUMPDEST SWAP2 POP PUSH2 0x1CC8 DUP4 PUSH2 0x158C JUMP JUMPDEST SWAP3 POP DUP3 DUP3 MUL PUSH2 0x1CD6 DUP2 PUSH2 0x158C JUMP JUMPDEST SWAP2 POP DUP3 DUP3 DIV DUP5 EQ DUP4 ISZERO OR PUSH2 0x1CED JUMPI PUSH2 0x1CEC PUSH2 0x1B66 JUMP JUMPDEST JUMPDEST POP SWAP3 SWAP2 POP POP JUMP JUMPDEST PUSH1 0x0 PUSH2 0x1CFF DUP3 PUSH2 0x158C JUMP JUMPDEST SWAP2 POP PUSH2 0x1D0A DUP4 PUSH2 0x158C JUMP JUMPDEST SWAP3 POP DUP3 DUP3 ADD SWAP1 POP DUP1 DUP3 GT ISZERO PUSH2 0x1D22 JUMPI PUSH2 0x1D21 PUSH2 0x1B66 JUMP JUMPDEST JUMPDEST SWAP3 SWAP2 POP POP JUMP INVALID LOG2 PUSH5 0x6970667358 0x22 SLT KECCAK256 OR 0x1E 0xAE TSTORE 0xA8 0xF7 0xDC MSTORE PUSH20 0x93AF81BD9CC0A8315C452EA62C0CEF7504352B8E SWAP3 PUSH17 0xFF64736F6C634300081800330000000000 "},"methodIdentifiers":{"getCompressedDeck(Deck storage)":"59a1ca0a","initDeck(Deck storage)":"94c80c6b","setDeckUnsafe(CompressedDeck,Deck storage)":"67769b93","shuffleEncPublicInput(CompressedDeck,CompressedDeck,uint256,uint256,uint256)":"b5b19c4d"}}}}}